S014000043686F696365204D616B65722E73726563B5
S11300000C9433000C9450000C9450000C94500049
S11300100C9450000C9450000C9450000C9450001C
S11300200C9450000C9450000C9420030C94500039
S11300300C9450000C9450000C9450000C945000FC
S11300400C9450000C9450000C9450000C945000EC
S11300500C945000A900AB00AD00AF00B100B30098
S1130060B500B700B90011241FBECFE5D8E0DEBF4C
S1130070CDBF10E0A0E6B0E0E0E2FCE002C00590F5
S11300800D92AA3CB107D9F721E0AAECB0E001C077
S11300901D92A631B207E1F70E94E1010C940E060D
S11300A00C94000080E090E0FC01E952FF4F1082C4
S11300B001968C309105C1F70895CF990AC08091BB
S11300C0D700893140F4E7EDF0E080818F5F8083D1
S11300D002C01092D7009091D70081E0993109F0C5
S11300E080E09091D700993118F099E19093D7006E
S11300F00895CF92DF92EF92FF926A017B01682FFD
S113010070E080E090E00E949E040E9427020E941A
S11301101D02C701B6010E9469030E942202FF90DA
S1130120EF90DF90CF90089544E650E060E070E0F7
S113013082E30E94790008950E949400089590E05B
S1130140FC013197E930F105B0F4E65DFF4F0C9402
S1130150080681E3089582E3089583E3089584E320
S1130160089585E3089586E3089587E3089588E371
S1130170089589E3089580E3089511B880E280B971
S1130180089524EA34E844E926BF06B607FEFDCF05
S113019091B1987F983011F09031B1F783B936BF9F
S11301A006B607FEFDCF91B1987F903211F09835D5
S11301B029F446BF06B604FCFDCFE6CF089584E9D2
S11301C086BF06B604FCFDCF089583B984E886BFD4
S11301D006B607FEFDCF91B1987F81E0983209F40D
S11301E080E00895CF93C82F862F0E94C1008C2FE2
S11301F00E94E5000E94DF00CF910895CF93C82F9D
S11302008091E30084608093E3006EE70E94F20033
S113021085E88A95F1F70000C295C07F8091E300DC
S11302206EE78C2B0E94F2008091E3008B7F809319
S1130230E3006EE70E94F20085E88A95F1F700007A
S1130240CF910895CF93DF93C82FD82FD295DF7025
S1130250611109C08091E3008E7F8093E3006EE713
S11302600E94F20008C08091E30081608093E30063
S11302706EE70E94F2008D2F0E94FE008C2F0E94D8
S1130280FE00DF91CF910895CF93C82F8091E300B2
S113029081608093E3006EE70E94F2008C2F8295C8
S11302A08F700E94FE008C2F0E94FE00CF91089553
S11302B060E081E00E94220187E49DE00197F1F76C
S11302C000C0000008951092E3000E94BD008FE278
S11302D095E70197F1F700C0000083E00E94FE005B
S11302E08FE39FE10197F1F700C0000083E00E94D3
S11302F0FE0087EC90E00197F1F700C0000083E076
S11303000E94FE008FEC97E00197F1F700C0000017
S113031082E00E94FE008FEC97E00197F1F700C0A5
S1130320000060E088E20E9422018FEC97E00197D0
S1130330F1F700C0000060E08CE00E9422018FEC25
S113034097E00197F1F700C0000060E086E00E94AA
S113035022018FEC97E00197F1F700C00000809133
S1130360E30088608093E3006EE70E94F2008091CE
S1130370E3008D7F8093E3006EE70E94F2000E9409
S11303805801089590E4699F800D112460E080680D
S11303900E94220108950F931F93CF93FC01808143
S11303A0882359F08F01C0E00E944401CF5FF80117
S11303B0EC0FF11D80818111F7CFCF911F910F9127
S11303C0089578940E9463010E94FB010E946103D6
S11303D00E9418020E94AF030E9452000E948C02E5
S11303E00E949C000E94BA0280E690E00E94F10301
S11303F00E940A03FDCF8FE78ABB80E88BBB17BA44
S11304008FEF88BB84BB15BA82EB81BB8CE482BBC3
S1130410089591B321E030E002C0220F331F8A9582
S1130420E2F7292B21BB089587E00E940902089571
S11304300E9414028AE485BD089585B58F7C80628C
S113044085BD089585B58F7C85BD9798089520E076
S113045030E04FE753E40E942C0520E030E048EC04
S113046052E40E94FD030E9499050E946F0463BD3B
S11304700895DE9A00C00000DE9883E08A95F1F7C3
S113048000C00895DE9A83E08A95F1F700C0DE98F3
S113049000C0000008951F93CF93DF93182FC8E086
S11304A0D0E8812F8D2319F00E94420202C00E94DD
S11304B03902D695C150A9F7DF91CF911F910895C4
S11304C0DE9885E88A95F1F7000008950F931F934D
S11304D0CF93DF93082F162FD42FC6E0802F0E94CE
S11304E04B02812F0E944B028D2F0E944B020E94CF
S11304F06002C15099F7DF91CF911F910F91089538
S113050040E06FEF80E00E946602089540E060E002
S11305108FEF0E94660208950E94860208950E9449
S1130520F703811105C00E945D00811103C0089585
S113053081E0089582E008950E94580160E080E01F
S11305400E94C20187E790E00E94CB018091CA001B
S11305508F5F0E949F000E94440184E890E00E9403
S1130560CB0161E080E00E94C20186E890E00E9435
S1130570CB0108950E94580160E080E00E94C2010E
S113058087E990E00E94CB012FEF8EEA9BE4215093
S113059080409040E1F700C000000E949C020E944D
S11305A080021092CC001092CB000895CF938091DA
S11305B0CA008930D8F4C091CA000E94BA03EC2F53
S11305C0F0E0EE0FFF1FEC51FF4F91838083809189
S11305D0CA008F5F8093CA0087E49DE00197F1F71A
S11305E000C000008CB10E949C0212C00E945801FD
S11305F060E080E00E94C20188EA90E00E94CB01A2
S113060061E080E00E94C20189EB90E00E94CB018E
S1130610CF9108950E948F028093CC008091CB00EB
S113062081110DC08091CC00813019F0823021F00D
S113063008950E94D602089583E08093CB00089524
S11306401F920F920FB60F9211248F939F93AF9323
S1130650BF938091D3009091D400A091D500B09124
S1130660D6000196A11DB11D8093D3009093D400B0
S1130670A093D500B093D6008091CD009091CE0088
S1130680A091CF00B091D0000196A11DB11D80931F
S1130690CD009093CE00A093CF00B093D000809172
S11306A0D1009091D20001969093D2008093D10012
S11306B0BF91AF919F918F910F900FBE0F901F909C
S11306C018958BE083BF12BE8DE78CBF82E089BF93
S11306D00895AB01BC011092D3001092D400109283
S11306E0D5001092D6008091D3009091D400A091AF
S11306F0D500B091D60084179507A607B70799F7D8
S113070008952AB128612AB920B5266820BDDC01E4
S1130710CB01880F991FAA1FBB1F880F991FAA1FFF
S1130720BB1F9C01AD01220F331F441F551F220F15
S1130730331F441F551F60E072E18AE790E00E9476
S1130740E6058FEF820F89B9DA01C9010197A10982
S1130750B109892F9A2FAB2FBB2780BD089560E87C
S113076075E280E090E00E94810308955F9BFECFD4
S11307708CB10895CF930E94B6038A30E1F38D3093
S113078061F0C0E0EC2FF0E0EA50FF4F8083CF5FD0
S11307900E94B6038D30B1F701C0C0E0EC2FF0E049
S11307A0EA50FF4F108286EF90E0CF9108955D9B51
S11307B0FECF8CB908950F931F93CF93FC018081D2
S11307C0882359F08F01C0E00E94D703CF5FF8015E
S11307D0EC0FF11D80818111F7CFCF911F910F9103
S11307E008950E94DB038AE00E94D70308958BB129
S11307F08095881F8827881F08950E9411040C94EF
S1130800F2040E94EB0458F00E94E40440F029F43E
S11308105F3F29F00C94DB0451110C9426050C94D1
S1130820E1040E94030568F39923B1F3552391F37E
S1130830951B550BBB27AA2762177307840738F04B
S11308409F5F5F4F220F331F441FAA1FA9F335D0A8
S11308500E2E3AF0E0E832D091505040E695001C5C
S1130860CAF72BD0FE2F29D0660F771F881FBB1F16
S1130870261737074807AB07B0E809F0BB0B802DF4
S1130880BF01FF2793585F4F3AF09E3F510578F020
S11308900C94DB040C9426055F3FE4F3983ED4F3F8
S11308A0869577956795B795F7959F5FC9F7880FF4
S11308B0911D9695879597F90895E1E0660F771F46
S11308C0881FBB1F621773078407BA0720F0621BD7
S11308D0730B840BBA0BEE1F88F7E09508950E9402
S11308E00B0588F09F5798F0B92F9927B751B0F0AE
S11308F0E1F0660F771F881F991F1AF0BA95C9F7A0
S113090014C0B13091F00E942505B1E008950C9413
S11309102505672F782F8827B85F39F0B93FCCF3C6
S1130920869577956795B395D9F73EF4909580951C
S1130930709561957F4F8F4F9F4F0895E89409C03C
S113094097FB3EF490958095709561957F4F8F4FFE
S11309509F4F9923A9F0F92F96E9BB279395F69514
S1130960879577956795B795F111F8CFFAF4BB0F92
S113097011F460FF1BC06F5F7F4F8F4F9F4F16C0F6
S1130980882311F096E911C0772321F09EE8872F80
S1130990762F05C0662371F096E8862F70E060E03C
S11309A02AF09A95660F771F881FDAF7880F9695B5
S11309B0879597F9089597F99F6780E870E060E05C
S11309C008959FEF80EC089500240A9416161706E4
S11309D018060906089500240A941216130614062C
S11309E005060895092E0394000C11F4882352F08F
S11309F0BB0F40F4BF2B11F460FF04C06F5F7F4F47
S1130A008F4F9F4F089557FD9058440F551F59F02D
S1130A105F3F71F04795880F97FB991F61F09F3FE7
S1130A2079F087950895121613061406551FF2CF10
S1130A304695F1DF08C0161617061806991FF1CF60
S1130A4086957105610508940895E894BB27662787
S1130A507727CB0197F908950E943F050C94F2047F
S1130A600E94E40438F00E94EB0420F0952311F076
S1130A700C94DB040C94E10411240C9426050E94CC
S1130A80030570F3959FC1F3950F50E0551F629FC6
S1130A90F001729FBB27F00DB11D639FAA27F00DD3
S1130AA0B11DAA1F649F6627B00DA11D661F829FFA
S1130AB02227B00DA11D621F739FB00DA11D621FDF
S1130AC0839FA00D611D221F749F3327A00D611DFC
S1130AD0231F849F600D211D822F762F6A2F1124DE
S1130AE09F5750409AF0F1F088234AF0EE0FFF1F11
S1130AF0BB1F661F771F881F91505040A9F79E3F68
S1130B00510580F00C94DB040C9426055F3FE4F35C
S1130B10983ED4F3869577956795B795F795E795BD
S1130B209F5FC1F7FE2B880F911D9695879597F9C6
S1130B3008950E940B05E8F09E37E8F09639B8F462
S1130B409E3848F4672F782F8827985FF9CF8695C9
S1130B507795679593959539D0F3B62FB1706B0F50
S1130B60711D811D20F487957795679593950C9455
S1130B70BD050C94D8050C942605882371F47723BD
S1130B8021F09850872B762F07C0662311F49927FC
S1130B900DC09051862B70E060E02AF09A95660FA4
S1130BA0771F881FDAF7880F9695879597F9089528
S1130BB09F3F31F0915020F4879577956795B795CD
S1130BC0880F911D9695879597F90895A1E21A2E9D
S1130BD0AA1BBB1BFD010DC0AA1FBB1FEE1FFF1FDD
S1130BE0A217B307E407F50720F0A21BB30BE40B2D
S1130BF0F50B661F771F881F991F1A9469F7609574
S1130C007095809590959B01AC01BD01CF0108952D
S1130C10EE0FFF1F0590F491E02D0994F894FFCF97
S1130C2041504C494B4143494A41204A45205A418D
S1130C30504F434554410020556E657369207376C7
S1130C406F6A20002E002020202020697A626F72B3
S1130C503A20202020200020506120636161616FD0
S1130C60206D61636F212000205072656B6F72618B
S1130C7063696C612073692000206772616E696327
S10D0C807520697A626F726120002A
S9030000FC
