S014000043686F696365204D616B65722E73726563B5
S11300000C9433000C9450000C9450000C94500049
S11300100C9450000C9450000C9450000C9450001C
S11300200C9450000C9450000C943C040C9450001C
S11300300C9450000C9450000C9450000C945000FC
S11300400C9450000C9450000C9450000C945000EC
S11300500C945000DA00DC00DE00E000E200E40072
S1130060E600E800EA0011241FBECFE5D8E0DEBFB9
S1130070CDBF11E0A0E6B0E0E6E5FEE002C00590E9
S11300800D92AC32B107D9F721E0ACE2B1E001C086
S11300901D92A637B207E1F70E9412020C942907B9
S11300A00C94000080E090E0FC01E75CFE4F1082BD
S11300B001968C309105C1F70895CF990AC08091BB
S11300C03901893140F4E9E3F1E080818F5F808375
S11300D002C0109239019091390181E0993109F0FF
S11300E080E090913901993118F099E190933901A8
S11300F00895CF92DF92EF92FF926A017B01682FFD
S113010070E080E090E00E94B9050E9458020E94CD
S11301104E02C701B6010E9485040E945302FF905B
S1130120EF90DF90CF90089542E350E060E070E0FC
S113013084EC0E947900089544E650E060E070E0A9
S113014082E30E94790008950E949C000895CF9351
S1130150DF9360E070E088E492E40E945802D3E008
S11301601AC00E944E0262E370E080E090E00E94B8
S113017085040E94530262E370E080E090E00E94F4
S11301808504C15071F760E971E080E090E00E945D
S11301908504D15011F0C3E0E4CFDF91CF910895ED
S11301A090E0FC013197E930F105B0F4E65DFF4FD2
S11301B00C94230781E3089582E3089583E308956B
S11301C084E3089585E3089586E3089587E3089515
S11301D088E3089589E3089580E3089511B880E2DF
S11301E080B9089524EA34E844E926BF06B607FE38
S11301F0FDCF91B1987F983011F09031B1F783B968
S113020036BF06B607FEFDCF91B1987F903211F04C
S1130210983529F446BF06B604FCFDCFE6CF089511
S113022084E986BF06B604FCFDCF089583B984E84B
S113023086BF06B607FEFDCF91B1987F81E0983264
S113024009F480E00895CF93C82F862F0E94F2000E
S11302508C2F0E9416010E941001CF910895CF9314
S1130260C82F809145018460809345016EE70E9408
S1130270230185E88A95F1F70000C295C07F80913B
S113028045016EE78C2B0E942301809145018B7FF1
S1130290809345016EE70E94230185E88A95F1F772
S11302A00000CF910895CF93DF93C82FD82FD29514
S11302B0DF70611109C0809145018E7F80934501F3
S11302C06EE70E94230108C08091450181608093FC
S11302D045016EE70E9423018D2F0E942F018C2F70
S11302E00E942F01DF91CF910895CF93C82F809161
S11302F045018160809345016EE70E9423018C2FA4
S113030082958F700E942F018C2F0E942F01CF9114
S1130310089560E081E00E94530187E49DE0019725
S1130320F1F700C000000895109245010E94EE000C
S11303308FE295E70197F1F700C0000083E00E9487
S11303402F018FE39FE10197F1F700C0000083E0E4
S11303500E942F0187EC90E00197F1F700C00000A4
S113036083E00E942F018FEC97E00197F1F700C022
S1130370000082E00E942F018FEC97E00197F1F7D3
S113038000C0000060E088E20E9453018FEC97E017
S11303900197F1F700C0000060E08CE00E94530177
S11303A08FEC97E00197F1F700C0000060E086E071
S11303B00E9453018FEC97E00197F1F700C0000011
S11303C0809145018860809345016EE70E94230176
S11303D0809145018D7F809345016EE70E94230142
S11303E00E948901089590E4699F800D112460E0C2
S11303F080680E94530108950F931F93CF93FC01CB
S11304008081882359F08F01C0E00E947501CF5F7D
S1130410F801EC0FF11D80818111F7CFCF911F916D
S11304200F91089578940E94C3020E9494010E943F
S11304302C020E947D040E9449020E94CB040E9467
S113044052000E94A4000E94F60280E690E00E94FE
S11304500D050E942004FDCF8FE78ABB80E88BBB8B
S113046017BA8FEF88BB84BB15BA82EB81BB8CE4CF
S113047082BB089591B321E030E002C0220F331F04
S11304808A95E2F7292B21BB089587E00E943A025E
S113049008950E9445028AE485BD089585B58F7C40
S11304A0806285BD089585B58F7C85BD9798089534
S11304B020E030E04FE753E40E94470620E030E0BC
S11304C048EC52E40E9418050E94B4060E948A0572
S11304D063BD0895DE9A00C00000DE9883E08A952B
S11304E0F1F700C00895DE9A83E08A95F1F700C021
S11304F0DE9800C0000008951F93CF93DF93182F58
S1130500C8E0D0E8812F8D2319F00E94730202C045
S11305100E946A02D695C150A9F7DF91CF911F912D
S11305200895DE9885E88A95F1F7000008950F9301
S11305301F93CF93DF93082F162FD42FC6E0802F5D
S11305400E947C02812F0E947C028D2F0E947C02DB
S11305500E949102C15099F7DF91CF911F910F91A1
S113056008954FEF60E080E00E949702089540E014
S11305706FEF80E00E949702089540E060E08FEF03
S11305800E94970208950E94BD0208950E941305D7
S113059081110AC00E945D00882349F080912C01DA
S11305A0823020F082E0089581E0089580E008958B
S11305B00E94890160E080E00E94F30187E790E0F7
S11305C00E94FC0180912C018F5F0E94D0000E9448
S11305D0750184E890E00E94FC0161E080E00E94E3
S11305E0F30186E890E00E94FC0108950E94BD0298
S11305F00E94890160E080E00E94F30187E990E0B5
S11306000E94FC012FEF8EEA9BE421508040904031
S1130610E1F700C000000E94D80210922E0110924F
S11306202D010E94B7020895CF930E94BD028091CC
S11306302C01883008F094C0C0912C010E94D6048B
S1130640EC2FF0E0EE0FFF1FEA5BFE4F91838083F7
S1130650E0912C01F0E0EE0FFF1FEA5BFE4FA0815A
S1130660B181FD0101900020E9F73197EA1BFB0BF2
S1130670B197E0F10E94890160E080E00E94F301FB
S113068088EA90E00E94FC0161E080E00E94F301AE
S113069087EB90E00E94FC0187E49DE00197F1F76D
S11306A000C000008CB19FEF2DE389E491502040FD
S11306B08040E1F700C0000080912C01883099F45B
S11306C00E94890160E080E00E94F30187EC90E0E1
S11306D00E94FC0161E080E00E94F30188ED90E05B
S11306E00E94FC0158C00E94D80255C080912C0180
S11306F08F5F80932C0180912C01882381F0C0E0CE
S1130700EC2FF0E0EE0FFF1FEA5BFE4F808191813A
S11307100E940D05CF5F80912C01C81788F387E4F0
S11307209DE00197F1F700C000008CB180912C018D
S1130730883099F40E94890160E080E00E94F3010E
S113074087EC90E00E94FC0161E080E00E94F301EC
S113075088ED90E00E94FC011EC00E94D8021BC0DC
S11307600E94D60487E49DE00197F1F700C00000E1
S11307708CB10E94890160E080E00E94F30189EE5F
S113078090E00E94FC0161E080E00E94F3018AEFA6
S113079090E00E94FC010E949C000E94B702CF914D
S11307A0089581E080932D010E94B1020E94890185
S11307B060E080E00E94F30189E091E00E94FC0186
S11307C061E080E00E94F3018AE191E00E94FC0173
S11307D00E9494000E945D008111FCCF0E94890157
S11307E00E94BD020895D5E023C0C0E00E948901A3
S11307F060E080E00E94F301EC2FF0E0EE0FFF1FB9
S1130800EA5BFE4F808191810E94FC010E9494006A
S11308102FEF80E792E0215080409040E1F700C044
S11308200000CF5F80912C01C81700F3D15029F04C
S113083080912C018111D9CFF9CF0E94A700FFCF5D
S11308400E94C60280932E0180912D01882319F005
S1130850813069F0089580912E01813029F0823031
S113086051F40E94D10308950E94140308958091C5
S11308702E010E94F30308951F920F920FB60F9258
S113088011248F939F93AF93BF93809135019091DF
S11308903601A0913701B09138010196A11DB11D17
S11308A08093350190933601A0933701B0933801BA
S11308B080912F0190913001A0913101B0913201CA
S11308C00196A11DB11D80932F0190933001A09337
S11308D03101B0933201809133019091340101963A
S11308E09093340180933301BF91AF919F918F9185
S11308F00F900FBE0F901F9018958BE083BF12BE10
S11309008DE78CBF82E089BF0895AB01BC011092D2
S113091035011092360110923701109238018091FE
S1130920350190913601A0913701B09138018417B7
S11309309507A607B70799F708952AB128612AB938
S113094020B5266820BDDC01CB01880F991FAA1FA2
S1130950BB1F880F991FAA1FBB1F9C01AD01220F4B
S1130960331F441F551F220F331F441F551F60E0C0
S113097072E18AE790E00E9401078FEF820F89B944
S1130980DA01C9010197A109B109892F9A2FAB2F67
S1130990BB2780BD089560E875E280E090E00E9486
S11309A09D0408955F9BFECF8CB10895CF930E9460
S11309B0D2048A30E1F38D3061F0C0E0EC2FF0E036
S11309C0EA5AFE4F8083CF5F0E94D2048D30B1F784
S11309D001C0C0E0EC2FF0E0EA5AFE4F108286E539
S11309E091E0CF9108955D9BFECF8CB908950F934C
S11309F01F93CF93FC018081882359F08F01C0E0BD
S1130A000E94F304CF5FF801EC0FF11D8081811186
S1130A10F7CFCF911F910F9108950E94F7048AE0B8
S1130A200E94F30408958BB1881F8827881F0895B6
S1130A300E942C050C940D060E94060658F00E9494
S1130A40FF0540F029F45F3F29F00C94F60551119D
S1130A500C9441060C94FC050E941E0668F399232D
S1130A60B1F3552391F3951B550BBB27AA276217A6
S1130A707307840738F09F5F5F4F220F331F441FB3
S1130A80AA1FA9F335D00E2E3AF0E0E832D09150E7
S1130A905040E695001CCAF72BD0FE2F29D0660FD4
S1130AA0771F881FBB1F261737074807AB07B0E817
S1130AB009F0BB0B802DBF01FF2793585F4F3AF01D
S1130AC09E3F510578F00C94F6050C9441065F3F67
S1130AD0E4F3983ED4F3869577956795B795F795A3
S1130AE09F5FC9F7880F911D9695879597F908958B
S1130AF0E1E0660F771F881FBB1F62177307840727
S1130B00BA0720F0621B730B840BBA0BEE1F88F735
S1130B10E09508950E94260688F09F5798F0B92F13
S1130B209927B751B0F0E1F0660F771F881F991F1E
S1130B301AF0BA95C9F714C0B13091F00E9440067A
S1130B40B1E008950C944006672F782F8827B85F8A
S1130B5039F0B93FCCF3869577956795B395D9F776
S1130B603EF490958095709561957F4F8F4F9F4F80
S1130B700895E89409C097FB3EF49095809570958C
S1130B8061957F4F8F4F9F4F9923A9F0F92F96E9D5
S1130B90BB279395F695879577956795B795F1114A
S1130BA0F8CFFAF4BB0F11F460FF1BC06F5F7F4FE7
S1130BB08F4F9F4F16C0882311F096E911C07723F9
S1130BC021F09EE8872F762F05C0662371F096E802
S1130BD0862F70E060E02AF09A95660F771F881FD1
S1130BE0DAF7880F9695879597F9089597F99F678F
S1130BF080E870E060E008959FEF80EC08950024A1
S1130C000A941616170618060906089500240A946D
S1130C1012161306140605060895092E0394000CF3
S1130C2011F4882352F0BB0F40F4BF2B11F460FF82
S1130C3004C06F5F7F4F8F4F9F4F089557FD9058AB
S1130C40440F551F59F05F3F71F04795880F97FB8C
S1130C50991F61F09F3F79F0879508951216130646
S1130C601406551FF2CF4695F1DF08C01616170675
S1130C701806991FF1CF86957105610508940895AA
S1130C80E894BB2766277727CB0197F908950E943C
S1130C905A060C940D060E94FF0538F00E940606C1
S1130CA020F0952311F00C94F6050C94FC05112406
S1130CB00C9441060E941E0670F3959FC1F3950F94
S1130CC050E0551F629FF001729FBB27F00DB11DCC
S1130CD0639FAA27F00DB11DAA1F649F6627B00D5C
S1130CE0A11D661F829F2227B00DA11D621F739F45
S1130CF0B00DA11D621F839FA00D611D221F749F53
S1130D003327A00D611D231F849F600D211D822F99
S1130D10762F6A2F11249F5750409AF0F1F08823C0
S1130D204AF0EE0FFF1FBB1F661F771F881F9150ED
S1130D305040A9F79E3F510580F00C94F6050C94A1
S1130D4041065F3FE4F3983ED4F386957795679523
S1130D50B795F795E7959F5FC1F7FE2B880F911D17
S1130D609695879597F908950E942606E8F09E3790
S1130D70E8F09639B8F49E3848F4672F782F88271E
S1130D80985FF9CF86957795679593959539D0F3C4
S1130D90B62FB1706B0F711D811D20F48795779567
S1130DA0679593950C94D8060C94F3060C9441061D
S1130DB0882371F4772321F09850872B762F07C06E
S1130DC0662311F499270DC09051862B70E060E0E2
S1130DD02AF09A95660F771F881FDAF7880F969581
S1130DE0879597F908959F3F31F0915020F48795A6
S1130DF077956795B795880F911D9695879597F97F
S1130E000895A1E21A2EAA1BBB1BFD010DC0AA1F47
S1130E10BB1FEE1FFF1FA217B307E407F50720F05F
S1130E20A21BB30BE40BF50B661F771F881F991FDA
S1130E301A9469F760957095809590959B01AC0123
S1130E40BD01CF010895EE0FFF1F0590F491E02D31
S1090E500994F894FFCFA1
S1130E5641504C494B4143494A41204A45205A4155
S1130E66504F434554410020556E6573692073768F
S1130E766F6A20002E002020202020697A626F727B
S1130E863A20202020200020504120434141414F58
S1130E96204D41434F2120005072656B6F72616390
S1130EA6696C61207369006F70736567206B61728A
S1130EB6616B7465726100556E656C61207369209F
S1130EC66D6178696D756D002062726F6A20697A4A
S1130ED6626F7261203A2920002053544F502049F2
S1130EE654204956414E41212000202020495420B7
S1130EF6485552545321202000204F747075737442
S1130F066920746173746572200069207361636576
S10F0F166B616A206F646C756B750000E1
S9030000FC
