S014000043686F696365204D616B65722E73726563B5
S11300000C9433000C9450000C9450000C94500049
S11300100C9450000C9450000C9450000C9450001C
S11300200C9450000C9450000C9481030C945000D8
S11300300C9450000C9450000C9450000C945000FC
S11300400C9450000C9450000C9450000C945000EC
S11300500C945000B100B300B500B700B900BB0068
S1130060BD00BF00C10011241FBECFE5D8E0DEBF34
S1130070CDBF11E0A0E6B0E0E0EEFCE002C00590E8
S11300800D92AC30B107D9F721E0ACE0B1E001C08A
S11300901D92A635B207E1F70E94E9010C946E06A1
S11300A00C94000080E090E0FC01E75EFE4F1082BB
S11300B001968C309105C1F70895CF990AC08091BB
S11300C01901893140F4E9E1F1E080818F5F808397
S11300D002C0109219019091190181E0993109F03F
S11300E080E090911901993118F099E190931901E8
S11300F00895CF92DF92EF92FF926A017B01682FFD
S113010070E080E090E00E94FE040E942F020E94B2
S11301102502C701B6010E94CA030E942A02FF9069
S1130120EF90DF90CF90089542E350E060E070E0FC
S113013084EC0E947900089544E650E060E070E0A9
S113014082E30E94790008950E949C00089590E043
S1130150FC013197E930F105B0F4E65DFF4F0C94F2
S1130160680681E3089582E3089583E3089584E3B0
S1130170089585E3089586E3089587E3089588E361
S1130180089589E3089580E3089511B880E280B961
S1130190089524EA34E844E926BF06B607FEFDCFF5
S11301A091B1987F983011F09031B1F783B936BF8F
S11301B006B607FEFDCF91B1987F903211F09835C5
S11301C029F446BF06B604FCFDCFE6CF089584E9C2
S11301D086BF06B604FCFDCF089583B984E886BFC4
S11301E006B607FEFDCF91B1987F81E0983209F4FD
S11301F080E00895CF93C82F862F0E94C9008C2FCA
S11302000E94ED000E94E700CF910895CF93C82F7C
S1130210809125018460809325016EE70E94FA0095
S113022085E88A95F1F70000C295C07F8091250189
S11302306EE78C2B0E94FA00809125018B7F8093BE
S113024025016EE70E94FA0085E88A95F1F700001F
S1130250CF910895CF93DF93C82FD82FD295DF7015
S1130260611109C0809125018E7F809325016EE77D
S11302700E94FA0008C080912501816080932501C5
S11302806EE70E94FA008D2F0E9406018C2F0E94B7
S11302900601DF91CF910895CF93C82F8091250156
S11302A08160809325016EE70E94FA008C2F82956D
S11302B08F700E9406018C2F0E940601CF91089531
S11302C060E081E00E942A0187E49DE00197F1F754
S11302D000C000000895109225010E94C5008FE21D
S11302E095E70197F1F700C0000083E00E94060142
S11302F08FE39FE10197F1F700C0000083E00E94C3
S1130300060187EC90E00197F1F700C0000083E05C
S11303100E9406018FEC97E00197F1F700C00000FE
S113032082E00E9406018FEC97E00197F1F700C08C
S1130330000060E088E20E942A018FEC97E00197B8
S1130340F1F700C0000060E08CE00E942A018FEC0D
S113035097E00197F1F700C0000060E086E00E949A
S11303602A018FEC97E00197F1F700C0000080911B
S113037025018860809325016EE70E94FA00809130
S113038025018D7F809325016EE70E94FA000E946B
S11303906001089590E4699F800D112460E08068F5
S11303A00E942A0108950F931F93CF93FC0180812B
S11303B0882359F08F01C0E00E944C01CF5FF801FF
S11303C0EC0FF11D80818111F7CFCF911F910F9117
S11303D0089578940E949A020E946B010E9403027D
S11303E00E94C2030E9420020E9410040E94520034
S11303F00E94A4000E94CD0280E690E00E94520474
S11304000E946703FDCF8FE78ABB80E88BBB17BAD6
S11304108FEF88BB84BB15BA82EB81BB8CE482BBB3
S1130420089591B321E030E002C0220F331F8A9572
S1130430E2F7292B21BB089587E00E941102089559
S11304400E941C028AE485BD089585B58F7C806274
S113045085BD089585B58F7C85BD9798089520E066
S113046030E04FE753E40E948C0520E030E048EC94
S113047052E40E945D040E94F9050E94CF0463BD0A
S11304800895DE9A00C00000DE9883E08A95F1F7B3
S113049000C00895DE9A83E08A95F1F700C0DE98E3
S11304A000C0000008951F93CF93DF93182FC8E076
S11304B0D0E8812F8D2319F00E944A0202C00E94C5
S11304C04102D695C150A9F7DF91CF911F910895AC
S11304D0DE9885E88A95F1F7000008950F931F933D
S11304E0CF93DF93082F162FD42FC6E0802F0E94BE
S11304F05302812F0E9453028D2F0E9453020E94A7
S11305006802C15099F7DF91CF911F910F9108951F
S11305104FEF60E080E00E946E02089540E06FEFCC
S113052080E00E946E02089540E060E08FEF0E9438
S11305306E0208950E94940208950E945804811145
S11305400AC00E945D00882349F080910C0182302A
S113055020F082E0089581E0089580E008950E94EB
S1130560600160E080E00E94CA0187E790E00E9499
S1130570D30180910C018F5F0E94A7000E944C015F
S113058084E890E00E94D30161E080E00E94CA0107
S113059086E890E00E94D30108950E9494020E948C
S11305A0600160E080E00E94CA0187E990E00E9457
S11305B0D3012FEF8EEA9BE4215080409040E1F775
S11305C000C000000E94AF0210920E0110920D01B3
S11305D00E948E020895CF930E94940280910C0190
S11305E0883090F5C0910C010E941B04EC2FF0E0C0
S11305F0EE0FFF1FEA5DFE4F9183808380910C0113
S11306008F5F80930C0187E49DE00197F1F700C0B0
S113061000008CB180910C01883099F40E94600133
S113062060E080E00E94CA0188EA90E00E94D30161
S113063061E080E00E94CA0189EB90E00E94D3014E
S11306401EC00E94AF021BC00E941B0487E49DE0F1
S11306500197F1F700C000008CB10E94600160E0D6
S113066080E00E94CA018AEC90E00E94D30161E01C
S113067080E00E94CA018BED90E00E94D3010E94A9
S11306809C000E948E02CF91089581E080930D0119
S11306900E9488020E94600160E080E00E94CA011A
S11306A08AEE90E00E94D30161E080E00E94CA01DA
S11306B08BEF90E00E94D3010E9494000E945D00A1
S11306C08111FCCF0E9460010E94940208950E944F
S11306D09D0280930E0180910D01882319F08130D1
S11306E069F0089580910E01813029F0823041F43F
S11306F00E94450308950E94EB02089580910E0123
S113070008951F920F920FB60F9211248F939F9307
S1130710AF93BF938091150190911601A091170199
S1130720B09118010196A11DB11D809315019093FC
S11307301601A0931701B093180180910F019091B5
S11307401001A0911101B09112010196A11DB11DDA
S113075080930F0190931001A0931101B0931201A3
S11307608091130190911401019690931401809348
S11307701301BF91AF919F918F910F900FBE0F9076
S11307801F9018958BE083BF12BE8DE78CBF82E06B
S113079089BF0895AB01BC01109215011092160196
S11307A01092170110921801809115019091160171
S11307B0A0911701B091180184179507A607B707F0
S11307C099F708952AB128612AB920B5266820BD71
S11307D0DC01CB01880F991FAA1FBB1F880F991F2B
S11307E0AA1FBB1F9C01AD01220F331F441F551FBD
S11307F0220F331F441F551F60E072E18AE790E027
S11308000E9446068FEF820F89B9DA01C901019768
S1130810A109B109892F9A2FAB2FBB2780BD089559
S113082060E875E280E090E00E94E20308955F9B37
S1130830FECF8CB10895CF930E9417048A30E1F360
S11308408D3061F0C0E0EC2FF0E0EA5CFE4F808375
S1130850CF5F0E9417048D30B1F701C0C0E0EC2FC8
S1130860F0E0EA5CFE4F108286E391E0CF910895B8
S11308705D9BFECF8CB908950F931F93CF93FC011A
S11308808081882359F08F01C0E00E943804CF5F33
S1130890F801EC0FF11D80818111F7CFCF911F91E9
S11308A00F9108950E943C048AE00E943804089540
S11308B08BB1881F8827881F08950E9471040C94A7
S11308C052050E944B0558F00E94440540F029F45B
S11308D05F3F29F00C943B0551110C9486050C9450
S11308E041050E94630568F39923B1F3552391F3FD
S11308F0951B550BBB27AA2762177307840738F08B
S11309009F5F5F4F220F331F441FAA1FA9F335D0E7
S11309100E2E3AF0E0E832D091505040E695001C9B
S1130920CAF72BD0FE2F29D0660F771F881FBB1F55
S1130930261737074807AB07B0E809F0BB0B802D33
S1130940BF01FF2793585F4F3AF09E3F510578F05F
S11309500C943B050C9486055F3FE4F3983ED4F376
S1130960869577956795B795F7959F5FC9F7880F33
S1130970911D9695879597F90895E1E0660F771F85
S1130980881FBB1F621773078407BA0720F0621B16
S1130990730B840BBA0BEE1F88F7E09508950E9441
S11309A06B0588F09F5798F0B92F9927B751B0F08D
S11309B0E1F0660F771F881F991F1AF0BA95C9F7DF
S11309C014C0B13091F00E948505B1E008950C94F3
S11309D08505672F782F8827B85F39F0B93FCCF3A6
S11309E0869577956795B395D9F73EF4909580955C
S11309F0709561957F4F8F4F9F4F0895E89409C07C
S1130A0097FB3EF490958095709561957F4F8F4F3D
S1130A109F4F9923A9F0F92F96E9BB279395F69553
S1130A20879577956795B795F111F8CFFAF4BB0FD1
S1130A3011F460FF1BC06F5F7F4F8F4F9F4F16C035
S1130A40882311F096E911C0772321F09EE8872FBF
S1130A50762F05C0662371F096E8862F70E060E07B
S1130A602AF09A95660F771F881FDAF7880F9695F4
S1130A70879597F9089597F99F6780E870E060E09B
S1130A8008959FEF80EC089500240A941616170623
S1130A9018060906089500240A941216130614066B
S1130AA005060895092E0394000C11F4882352F0CE
S1130AB0BB0F40F4BF2B11F460FF04C06F5F7F4F86
S1130AC08F4F9F4F089557FD9058440F551F59F06D
S1130AD05F3F71F04795880F97FB991F61F09F3F27
S1130AE079F087950895121613061406551FF2CF50
S1130AF04695F1DF08C0161617061806991FF1CFA0
S1130B0086957105610508940895E894BB276627C6
S1130B107727CB0197F908950E949F050C945205FD
S1130B200E94440538F00E944B0520F0952311F0F3
S1130B300C943B050C94410511240C9486050E94E9
S1130B40630570F3959FC1F3950F50E0551F629FA5
S1130B50F001729FBB27F00DB11D639FAA27F00D12
S1130B60B11DAA1F649F6627B00DA11D661F829F39
S1130B702227B00DA11D621F739FB00DA11D621F1E
S1130B80839FA00D611D221F749F3327A00D611D3B
S1130B90231F849F600D211D822F762F6A2F11241D
S1130BA09F5750409AF0F1F088234AF0EE0FFF1F50
S1130BB0BB1F661F771F881F91505040A9F79E3FA7
S1130BC0510580F00C943B050C9486055F3FE4F3DB
S1130BD0983ED4F3869577956795B795F795E795FD
S1130BE09F5FC1F7FE2B880F911D9695879597F906
S1130BF008950E946B05E8F09E37E8F09639B8F442
S1130C009E3848F4672F782F8827985FF9CF869508
S1130C107795679593959539D0F3B62FB1706B0F8F
S1130C20711D811D20F487957795679593950C9494
S1130C301D060C9438060C948605882371F47723DA
S1130C4021F09850872B762F07C0662311F499273B
S1130C500DC09051862B70E060E02AF09A95660FE3
S1130C60771F881FDAF7880F9695879597F9089567
S1130C709F3F31F0915020F4879577956795B7950C
S1130C80880F911D9695879597F90895A1E21A2EDC
S1130C90AA1BBB1BFD010DC0AA1FBB1FEE1FFF1F1C
S1130CA0A217B307E407F50720F0A21BB30BE40B6C
S1130CB0F50B661F771F881F991F1A9469F76095B3
S1130CC07095809590959B01AC01BD01CF0108956D
S1130CD0EE0FFF1F0590F491E02D0994F894FFCFD7
S1130CE041504C494B4143494A41204A45205A41CD
S1130CF0504F434554410020556E65736920737607
S1130D006F6A20002E002020202020697A626F72F2
S1130D103A20202020200020504120434141414FCF
S1130D20204D41434F212000556E656C612073694D
S1130D30206D6178696D756D002062726F6A20693B
S1130D407A626F7261203A2920002053544F502058
S1130D504954204956414E41212000202020495425
S1130D6020485552545321202000204F747075732D
S1130D7074692074617374657220006920736163FF
S10F0D80656B616A206F646C756B750014
S9030000FC
