S014000043686F696365204D616B65722E73726563B5
S11300000C9433000C9450000C9450000C94500049
S11300100C9450000C9450000C9450000C9450001C
S11300200C9450000C9450000C94A6060C945000B0
S11300300C9450000C9450000C9450000C945000FC
S11300400C9450000C9450000C9450000C945000EC
S11300500C945000ED00EF00F100F300F500F70000
S1130060F900FB00FD0011241FBECFE5D8E0DEBF80
S1130070CDBF11E0A0E6B0E0E2ECF4E102C00590EF
S11300800D92A83BB107D9F723E0A8EBB1E001C07A
S11300901D92A63FB207E1F70E9425020C945F0A65
S11300A00C940000FC010FB6F8946091F203709177
S11300B0F3038091F4039091F5030FBE309721F080
S11300C06083718382839383089580E090E0FC01D0
S11300D0EB53FE4F108201968C309105C1F70895C1
S11300E0CF990AC08091C501893140F4E5ECF1E073
S11300F080818F5F808302C01092C5019091C501F9
S113010081E0993109F080E09091C501993118F0AE
S113011099E19093C5010895CF92DF92EF92FF92F7
S11301206A017B01682F70E080E090E00E94230860
S11301300E946B020E946102C701B6010E94EF0691
S11301400E946602FF90EF90DF90CF90089542E303
S113015050E060E070E084EC0E948C00089544E676
S113016050E060E070E082E30E948C0008950E94F9
S1130170AF000895CF93DF9360E070E088E492E4E9
S11301800E946B02D3E01AC00E94610262E370E035
S113019080E090E00E94EF060E94660262E370E055
S11301A080E090E00E94EF06C15071F760E971E0D1
S11301B080E090E00E94EF06D15011F0C3E0E4CF5C
S11301C0DF91CF91089590E0FC013197E930F1057A
S11301D0B0F4E65DFF4F0C94A10981E3089582E336
S11301E0089583E3089584E3089585E3089586E3F9
S11301F0089587E3089588E3089589E3089580E3E3
S1130200089511B880E280B9089524EA34E844E9F5
S113021026BF06B607FEFDCF91B1987F983011F046
S11302209031B1F783B936BF06B607FEFDCF91B161
S1130230987F903211F0983529F446BF06B604FC35
S1130240FDCFE6CF089584E986BF06B604FCFDCF52
S1130250089583B984E886BF06B607FEFDCF91B141
S1130260987F81E0983209F480E00895CF93C82FF5
S1130270862F0E9405018C2F0E9429010E942301D0
S1130280CF910895CF93C82F8091D101846080933A
S1130290D1016EE70E94360185E88A95F1F70000E6
S11302A0C295C07F8091D1016EE78C2B0E943601EC
S11302B08091D1018B7F8093D1016EE70E9436013A
S11302C085E88A95F1F70000CF910895CF93DF93E5
S11302D0C82FD82FD295DF70611109C08091D10148
S11302E08E7F8093D1016EE70E94360108C0809111
S11302F0D10181608093D1016EE70E9436018D2F78
S11303000E9442018C2F0E944201DF91CF910895F7
S1130310CF93C82F8091D10181608093D1016EE782
S11303200E9436018C2F82958F700E9442018C2F7F
S11303300E944201CF91089560E081E00E9466012D
S113034087E49DE00197F1F700C000000895109242
S1130350D1010E9401018FE295E70197F1F700C0F6
S1130360000083E00E9442018FE39FE10197F1F7CF
S113037000C0000083E00E94420187EC90E00197F6
S1130380F1F700C0000083E00E9442018FEC97E087
S11303900197F1F700C0000082E00E9442018FEC57
S11303A097E00197F1F700C0000060E088E20E9446
S11303B066018FEC97E00197F1F700C0000060E060
S11303C08CE00E9466018FEC97E00197F1F700C082
S11303D0000060E086E00E9466018FEC97E00197E0
S11303E0F1F700C000008091D10188608093D101B1
S11303F06EE70E9436018091D1018D7F8093D101F7
S11304006EE70E9436010E949C01089590E4699F62
S1130410800D112460E080680E94660108950F93A6
S11304201F93CF93FC018081882359F08F01C0E092
S11304300E948801CF5FF801EC0FF11D80818111CA
S1130440F7CFCF911F910F91089578940E94E802FD
S11304500E94A7010E943F020E94E7060E945C02DC
S11304600E9435070E9465000E94B7000E9426037F
S113047084E690E00E9477070E948406FDCF8FE710
S11304808ABB80E88BBB17BA8FEF88BB84BB15BAD5
S113049082EB81BB8CE482BB089591B321E030E010
S11304A002C0220F331F8A95E2F7292B21BB08953E
S11304B087E00E944D0208950E9458028AE485BD97
S11304C0089585B58F7C806285BD089585B58F7C40
S11304D085BD9798089520E030E04FE753E40E94EB
S11304E0B10820E030E048EC52E40E9482070E9408
S11304F01E090E94F40763BD0895DE9A00C000003F
S1130500DE9883E08A95F1F700C00895DE9A83E0CF
S11305108A95F1F700C0DE9800C0000008951F938B
S1130520CF93DF93182FC8E0D0E8812F8D2319F0E3
S11305300E94860202C00E947D02D695C150A9F78E
S1130540DF91CF911F910895DE9885E88A95F1F7A0
S1130550000008950F931F93CF93DF93082F162F56
S1130560D42FC6E0802F0E948F02812F0E948F0219
S11305708D2F0E948F020E94A402C15099F7DF912F
S1130580CF911F910F9108954FEF6FEF80E00E947C
S1130590AA0208954FEF60E080E00E94AA02089545
S11305A040E06FEF80E00E94AA02089540E06FEF00
S11305B08FEF0E94AA0208954FEF60E08FEF0E9430
S11305C0AA02089540E060E08FEF0E94AA02089515
S11305D00E94E20208954FEF6FEF8FEF0E94AA028C
S11305E008950E947D0781110DC00E947000882328
S11305F021F08091B801823038F40E94700081119A
S113060005C0089581E0089582E0089583E0089587
S11306100E949C0160E080E00E9406028BE790E06B
S11306200E940F028091B8018F5F0E94E3000E9434
S1130630880188E890E00E940F0261E080E00E9457
S113064006028AE890E00E940F0208950E94E202E6
S11306500E949C0160E080E00E9406028BE990E029
S11306600E940F022FEF8EEA9BE4215080409040BD
S1130670E1F700C000000E94080380E090E00E94BF
S11306805200CB010E940C0A1092BA011092B901D7
S11306900E94D0020E947D07882349F00E944007EF
S11306A087E49DE00197F1F700C000008CB1089544
S11306B00E94E2028091B801883008F079C00E945B
S11306C04007FC0101900020E9F73197E81BF90B82
S11306D0B197E0F10E949C0160E080E00E94060274
S11306E08CEA90E00E940F0261E080E00E94060222
S11306F08BEB90E00E940F0287E49DE00197F1F7F5
S113070000C000008CB19FEF2DE349E491502040DC
S11307104040E1F700C000008091B801883099F4AE
S11307200E949C0160E080E00E9406028BEC90E055
S11307300E940F0261E080E00E9406028CED90E0CE
S11307400E940F0250C00E9408034DC02091B801BE
S113075040E4249F90011124BC01C9018E529E4F94
S11307600E94170A8091B8018F5F8093B80187E4D3
S11307709DE00197F1F700C000008CB18091B801B1
S1130780883099F40E949C0160E080E00E94060297
S11307908BEC90E00E940F0261E080E00E94060270
S11307A08CED90E00E940F021EC00E9408031BC043
S11307B00E94400787E49DE00197F1F700C0000024
S11307C08CB10E949C0160E080E00E9406028DEEE4
S11307D090E00E940F0261E080E00E9406028EEF2A
S11307E090E00E940F020E94AF000E94D002089580
S11307F081E08093B9010E94CA020E949C0160E0DA
S113080080E00E9406028DE091E00E940F0261E008
S113081080E00E9406028EE191E00E940F020E9495
S1130820A7000E9470008111FCCF0E947D078823DD
S113083049F00E94400787E49DE00197F1F700C06A
S113084000008CB108952F923F924F925F926F9265
S11308507F928F929F92AF92BF92CF92DF92EF924C
S1130860FF920F931F93CF93DF9300D000D0CDB7A7
S1130870DEB721E029830F2EF6EE8F2E912CA12CCA
S1130880B12CF02D612C09C063943EE1830E911CC0
S1130890A11CB11C89818F5F8983140125019EE10C
S11308A0291A310841085108611008C00E94C40285
S11308B0E3C18091B801811129C0A6C0E1E06E12A4
S11308C003C00E94D002D8C1F2E06F1203C00E949C
S11308D0CA02D2C123E0621203C00E94E202CCC168
S11308E034E0631203C00E94D602C6C185E06812D8
S11308F003C00E94EB02C0C196E06912DACF0E94E5
S1130900DC028091B801882309F482C0712CC72CC1
S1130910D12C860100241695079507941695079502
S11309200794102F002D0E521E4FF8010190002045
S1130930E9F73197E01BF10B719708F450C00E945E
S11309409C0160E080E00E940602E0E47E9EC0011B
S113095011241C830B83FC01EE50FE4F7F01EB81BD
S1130960FC8180813296FC83EB830E9488012B8179
S11309703C812E153F0599F761E080E00E94060254
S113098030E13A83CC0CDD1CCC0CDD1CCC0CDD1C22
S1130990CC0CDD1CCC0CDD1C0EC0F6018A81E80FEA
S11309A0F11DEE0FFF1FEE52FE4F80810E94880161
S11309B09A819F5F9A83F80101900020E9F73197AB
S11309C0E01BF10B2A81822F90E08E179F0728F3FA
S11309D00E94A700C201B1010E94EF060FC00E944D
S11309E09C0160E080E00E940602C8010E940F02A0
S11309F00E94A700C201B1010E94EF067394809186
S1130A00B801781608F483CF3981373008F43CCF25
S1130A10E2EDF1E001900020E9F73197E25DF14069
S1130A20A2E1B2E00D900020E9F7CD01835192409C
S1130A308E0F9F1F0E940C0A0E94070A9C838B83BF
S1130A401091B8010E94070A6091B8012091B80181
S1130A5070E00E946B09AC014F5F5F4F822F90E002
S1130A604817590769F48091B8010E949C0160E01D
S1130A7080E00E9406028FE291E00E940F02C4C04F
S1130A800E94070A6091B8012091B80170E00E94A9
S1130A906B09AC014E5F5F4F822F90E001964817BF
S1130AA05907A9F48091B8010E949C0160E080E09C
S1130AB00E9406028FE391E00E940F0261E080E051
S1130AC00E94060280E591E00E940F029DC00E94F0
S1130AD0070A6091B8012091B80170E00E946B0987
S1130AE0AC014D5F5F4F822F90E002964817590783
S1130AF0A9F48091B8010E949C0160E080E00E940A
S1130B00060283E691E00E940F0261E080E00E9409
S1130B10060284E791E00E940F0276C0612F70E024
S1130B208B819C810E946B097C016C018C010024E7
S1130B30169507950794169507950794102F002D81
S1130B400E521E4FF80101900020E9F73197E01B87
S1130B50F10B719708F44FC00E949C0160E080E0A3
S1130B600E940602C70100249695879507949695DE
S1130B7087950794982F802D1C830B839C012E50FE
S1130B803E4F7901EB81FC8180813296FC83EB83BB
S1130B900E9488012B813C812E153F0599F761E065
S1130BA080E00E9406026894FF24F4F8C601880FCE
S1130BB0991F82959295907F9827807F98279C8390
S1130BC08B830CC0EB81FC81EF0DF11DEE0FFF1F39
S1130BD0EE52FE4F80810E948801F394F801019047
S1130BE00020E9F73197E01BF10B8F2D90E08E1771
S1130BF09F0740F309C00E949C0160E080E00E94CE
S1130C000602C8010E940F021092B8010E94E2027B
S1130C100E94BA000E9470008823E1F31092B90187
S1130C200E94CA020E949C0160E080E00E940602C9
S1130C308DE091E00E940F0261E080E00E940602D4
S1130C4084E891E00E940F020E94A7000E947000B5
S1130C508111FCCF0E9408030E94D0020E947D07EC
S1130C60882379F00E944007E7E4FDE03197F1F72B
S1130C7000C000008CB105C08091B801811146CE3E
S1130C8003CE0F900F900F900F90DF91CF911F9193
S1130C900F91FF90EF90DF90CF90BF90AF909F9017
S1130CA08F907F906F905F904F903F902F9008951A
S1130CB00E94E2020E949C0160E080E00E94060221
S1130CC085E991E00E940F0261E080E00E94060243
S1130CD086EA91E00E940F020E94A7000E94700021
S1130CE08111FCCF0E9408030E94D0020E947D075C
S1130CF0882349F00E94400787E49DE00197F1F7BB
S1130D0000C000008CB108950E94F1028093BA01E2
S1130D108091B901882319F0813099F00895809168
S1130D20BA01823029F0833049F0813071F403C074
S1130D300E94F80308950E94580308950E945806DB
S1130D4008958091BA010E94230408951F920F927E
S1130D500FB60F9211248F939F93AF93BF938091FB
S1130D60C1019091C201A091C301B091C401019647
S1130D70A11DB11D8093C1019093C201A093C30131
S1130D80B093C4018091BB019091BC01A091BD01BD
S1130D90B091BE010196A11DB11D8093BB0190933A
S1130DA0BC01A093BD01B093BE018091BF0190919D
S1130DB0C00101969093C0018093BF01BF91AF9190
S1130DC09F918F910F900FBE0F901F9018958BE0FD
S1130DD083BF12BE8DE78CBF82E089BF0895AB014B
S1130DE0BC011092C1011092C2011092C301109271
S1130DF0C4018091C1019091C201A091C301B0913D
S1130E00C40184179507A607B70799F708952AB16F
S1130E1028612AB920B5266820BDDC01CB01880FE2
S1130E20991FAA1FBB1F880F991FAA1FBB1F9C01D4
S1130E30AD01220F331F441F551F220F331F441FC0
S1130E40551F60E072E18AE790E00E947F098FEF0E
S1130E50820F89B9DA01C9010197A109B109892F62
S1130E609A2FAB2FBB2780BD089560E875E280E020
S1130E7090E00E94070708955F9BFECF8CB1089510
S1130E80CF930E943C078A30E1F38D3061F0C0E0DB
S1130E90EC2FF0E0EE52FC4F8083CF5F0E943C07C2
S1130EA08D30B1F701C0C0E0EC2FF0E0EE52FC4F02
S1130EB0108282ED93E0CF9108955D9BFECF8CB9B3
S1130EC008950F931F93CF93FC018081882359F0D9
S1130ED08F01C0E00E945D07CF5FF801EC0FF11DA8
S1130EE080818111F7CFCF911F910F9108950E94B6
S1130EF061078AE00E945D0708958BB1881F8827E7
S1130F00881F08950E9496070C9477080E94700821
S1130F1058F00E94690840F029F45F3F29F00C94CE
S1130F20600851110C94AB080C9466080E94880860
S1130F3068F39923B1F3552391F3951B550BBB2704
S1130F40AA2762177307840738F09F5F5F4F220F49
S1130F50331F441FAA1FA9F335D00E2E3AF0E0E840
S1130F6032D091505040E695001CCAF72BD0FE2F8A
S1130F7029D0660F771F881FBB1F2617370748071E
S1130F80AB07B0E809F0BB0B802DBF01FF279358D6
S1130F905F4F3AF09E3F510578F00C9460080C9432
S1130FA0AB085F3FE4F3983ED4F386957795679555
S1130FB0B795F7959F5FC9F7880F911D969587950B
S1130FC097F90895E1E0660F771F881FBB1F62172A
S1130FD073078407BA0720F0621B730B840BBA0BE8
S1130FE0EE1F88F7E09508950E94900888F09F57B7
S1130FF098F0B92F9927B751B0F0E1F0660F771F39
S1131000881F991F1AF0BA95C9F714C0B13091F02E
S11310100E94AA08B1E008950C94AA08672F782FBB
S11310208827B85F39F0B93FCCF3869577956795F3
S1131030B395D9F73EF490958095709561957F4F5F
S11310408F4F9F4F0895E89409C097FB3EF4909505
S11310508095709561957F4F8F4F9F4F9923A9F08D
S1131060F92F96E9BB279395F6958795779567951C
S1131070B795F111F8CFFAF4BB0F11F460FF1BC060
S11310806F5F7F4F8F4F9F4F16C0882311F096E9F3
S113109011C0772321F09EE8872F762F05C06623A1
S11310A071F096E8862F70E060E02AF09A95660F5A
S11310B0771F881FDAF7880F9695879597F9089513
S11310C097F99F6780E870E060E008959FEF80ECF7
S11310D0089500240A94161617061806090608959A
S11310E000240A9412161306140605060895092E00
S11310F00394000C11F4882352F0BB0F40F4BF2B6F
S113110011F460FF04C06F5F7F4F8F4F9F4F0895AE
S113111057FD9058440F551F59F05F3F71F04795A4
S1131120880F97FB991F61F09F3F79F08795089589
S1131130121613061406551FF2CF4695F1DF08C0A8
S1131140161617061806991FF1CF869571056105C5
S113115008940895E894BB2766277727CB0197F96D
S113116008950E94C4080C9477080E94690838F016
S11311700E94700820F0952311F00C9460080C94E0
S1131180660811240C94AB080E94880870F3959F9C
S1131190C1F3950F50E0551F629FF001729FBB276A
S11311A0F00DB11D639FAA27F00DB11DAA1F649F06
S11311B06627B00DA11D661F829F2227B00DA11DB9
S11311C0621F739FB00DA11D621F839FA00D611D3F
S11311D0221F749F3327A00D611D231F849F600D60
S11311E0211D822F762F6A2F11249F5750409AF089
S11311F0F1F088234AF0EE0FFF1FBB1F661F771F15
S1131200881F91505040A9F79E3F510580F00C94DF
S113121060080C94AB085F3FE4F3983ED4F38695E2
S113122077956795B795F795E7959F5FC1F7FE2B7F
S1131230880F911D9695879597F908950E949008B7
S1131240E8F09E37E8F09639B8F49E3848F4672FF2
S1131250782F8827985FF9CF86957795679593952A
S11312609539D0F3B62FB1706B0F711D811D20F429
S113127087957795679593950C9442090C945D092D
S11312800C94AB08882371F4772321F09850872BB2
S1131290762F07C0662311F499270DC09051862B31
S11312A070E060E02AF09A95660F771F881FDAF7DE
S11312B0880F9695879597F908959F3F31F091503F
S11312C020F4879577956795B795880F911D969526
S11312D0879597F9089597FB072E16F4009407D085
S11312E077FD09D00E94A70907FC05D03EF490952C
S11312F081959F4F0895709561957F4F0895A1E260
S11313001A2EAA1BBB1BFD010DC0AA1FBB1FEE1F7B
S1131310FF1FA217B307E407F50720F0A21BB30BC6
S1131320E40BF50B661F771F881F991F1A9469F742
S113133060957095809590959B01AC01BD01CF019E
S11313400895EE0FFF1F0590F491E02D0994AA1B58
S1131350BB1B51E107C0AA1FBB1FA617B70710F09C
S1131360A61BB70B881F991F5A95A9F780959095CE
S1131370BC01CD0108958F929F92AF92BF92CF92FC
S1131380DF92EF92FF92CF93DF93EC016881798132
S11313908A819B81611571058105910521F464E2BF
S11313A079ED8BE597E02DE133EF41E050E00E94C9
S11313B01E0A49015A019B01AC01A7EAB1E40E944B
S11313C03D0A6B017C01ACEEB4EFA50194010E94CF
S11313D04B0ADC01CB018C0D9D1DAE1DBF1DB7FF5B
S11313E003C00197A109B04888839983AA83BB836A
S11313F09F77DF91CF91FF90EF90DF90CF90BF90D8
S1131400AF909F908F9008950E94BB09089580E645
S113141090E00E94BB090895A0E0B0E080936000D2
S113142090936100A0936200B09363000895FB0160
S1131430DC0101900D920020E1F70895052E97FB41
S11314401EF400940E94350A57FD07D00E947F09BC
S113145007FC03D04EF40C94350A50954095309512
S113146021953F4F4F4F5F4F08959095809570950C
S113147061957F4F8F4F9F4F08950E94500AA59FFB
S1131480900DB49F900DA49F800D911D112408957B
S1131490B7FF0C943D0A0E943D0A821B930B0895EA
S11314A0A29FB001B39FC001A39F700D811D1124A1
S11314B0911DB29F700D811D1124911D0895F89402
S10514C0FFCF58
S11314C20100000041504C494B4143494A41204AE2
S11314D245205A41504F434554410020556E65738F
S11314E2692073766F6A20002E0020202020206954
S11314F27A626F723A20202020200020504120433B
S11315024141414F204D41434F2120005072656BB0
S11315126F726163696C61207369006F70736567D0
S1131522206B6172616B7465726100556E656C61EA
S1131532207369206D6178696D756D002062726F28
S11315426A20697A626F7261203A2920002053541A
S11315524F50204954204956414E41212000202019
S113156220495420485552545321202000204F74BE
S113157270757374692074617374657220006920D4
S1131582736163656B616A206F646C756B750020AF
S11315924964692075206B6166616E7521200020A3
S11315A22044726F70206974206C696B652020007E
S11315B2202020206974277320686F742120202042
S11315C22020005A6167726C69206E656B6F672018
S11315D262657A00696B616B766520656D6F63691C
S11315E26A65210069207A61706F636E6920706F89
S11315F26E6F766F004D6F72617320756E657469DC
S113160220626172200064766120697A626F72617D
S10B1612206D61636F200000EC
S9030000FC
