S014000043686F696365204D616B65722E73726563B5
S11300000C9433000C9450000C9450000C94500049
S11300100C9450000C9450000C9450000C9450001C
S11300200C9450000C9450000C9410050C94500047
S11300300C9450000C9450000C9450000C945000FC
S11300400C9450000C9450000C9450000C945000EC
S11300500C945000E000E200E400E600E800EA004E
S1130060EC00EE00F00011241FBECFE5D8E0DEBFA7
S1130070CDBF11E0A0E6B0E0ECEBF1E102C00590E9
S11300800D92A23DB107D9F722E0A2EDB1E001C083
S11300901D92AC38B207E1F70E9436020C94DC08DA
S11300A00C94000080E090E0FC01E152FE4F1082CD
S11300B001968C309105C1F70895CF990AC08091BB
S11300C0DF01893140F4EFEDF1E080818F5F8083BF
S11300D002C01092DF019091DF0181E0993109F0B3
S11300E080E09091DF01993118F099E19093DF015C
S11300F008950895CF92DF92EF92FF926A017B01F7
S1130100682F70E080E090E00E94A0060E947C02CC
S11301100E947202C701B6010E9459050E9477022B
S1130120FF90EF90DF90CF90089542E350E060E0BD
S113013070E084EC0E947A00089544E650E060E0A8
S113014070E082E30E947A00089544E650E060E0A3
S113015070E08FEF0E947A000895CF93DF9360E000
S113016070E088E492E40E947C02D3E01AC00E940A
S1130170720262E370E080E090E00E9459050E9400
S1130180770262E370E080E090E00E945905C1507C
S113019071F760E971E080E090E00E945905D15068
S11301A011F0C3E0E4CFDF91CF91089590E0FC011A
S11301B03197E930F105B0F4E65DFF4F0C941E0869
S11301C081E3089582E3089583E3089584E3089521
S11301D085E3089586E3089587E3089588E3089501
S11301E089E3089580E3089511B880E280B9089501
S11301F024EA34E844E926BF06B607FEFDCF91B1F0
S1130200987F983011F09031B1F783B936BF06B6B4
S113021007FEFDCF91B1987F903211F0983529F403
S113022046BF06B604FCFDCFE6CF089584E986BF39
S113023006B604FCFDCF089583B984E886BF06B6EC
S113024007FEFDCF91B1987F81E0983209F480E0F8
S11302500895CF93C82F862F0E94F8008C2F0E94F8
S11302601C010E941601CF910895CF93C82F80914D
S1130270EB0184608093EB016EE70E94290185E81D
S11302808A95F1F70000C295C07F8091EB016EE77B
S11302908C2B0E9429018091EB018B7F8093EB01D1
S11302A06EE70E94290185E88A95F1F70000CF9155
S11302B00895CF93DF93C82FD82FD295DF706111A3
S11302C009C08091EB018E7F8093EB016EE70E9461
S11302D0290108C08091EB0181608093EB016EE7F6
S11302E00E9429018D2F0E9435018C2F0E94350117
S11302F0DF91CF910895CF93C82F8091EB01816056
S11303008093EB016EE70E9429018C2F82958F70F8
S11303100E9435018C2F0E943501CF91089560E031
S113032081E00E94590187E49DE00197F1F700C044
S1130330000008951092EB010E94F4008FE295E70B
S11303400197F1F700C0000083E00E9435018FE3BC
S11303509FE10197F1F700C0000083E00E9435019E
S113036087EC90E00197F1F700C0000083E00E9461
S113037035018FEC97E00197F1F700C0000082E0AF
S11303800E9435018FEC97E00197F1F700C000005F
S113039060E088E20E9459018FEC97E00197F1F741
S11303A000C0000060E08CE00E9459018FEC97E0EF
S11303B00197F1F700C0000060E086E00E94590157
S11303C08FEC97E00197F1F700C000008091EB01FA
S11303D088608093EB016EE70E9429018091EB0114
S11303E08D7F8093EB016EE70E9429010E948F01AB
S11303F008950F931F93CF93FC018081882359F0B4
S11304008F01C0E00E947B01CF5FF801EC0FF11D6A
S113041080818111F7CFCF911F910F910895CF93D0
S1130420DF93EC010E948F0160E080E80E94590193
S1130430CE010E94F901DF91CF910895CF93DF930C
S1130440EC0160E080EC0E945901CE010E94F901A8
S1130450DF91CF910895CF93DF93EB010E940F02B8
S1130460CE010E941E02DF91CF91089578940E94DC
S11304708E020E949A010E9450020E9451050E941D
S11304806D020E949F050E9452000E9479000E9402
S11304902A0384E690E00E94E1050E94EE04FDCF69
S11304A08FE78ABB80E88BBB17BA8FEF88BB84BB0E
S11304B015BA82EB81BB8CE482BB089591B321E031
S11304C030E002C0220F331F8A95E2F7292B21BBAB
S11304D0089587E00E945E0208950E9469028AE4FA
S11304E085BD089585B58F7C806285BD089585B5E9
S11304F08F7C85BD9798089520E030E04FE753E462
S11305000E942E0720E030E048EC52E40E94FF05F0
S11305100E949B070E94710663BD08950895DE9AA8
S113052000C00000DE9883E08A95F1F700C00895CA
S1130530DE9A83E08A95F1F700C0DE9800C00000DF
S113054008951F93CF93DF93182FC8E0D0E8812F2D
S11305508D2319F00E94980202C00E948F02D69542
S1130560C150A9F7DF91CF911F910895DE9885E8D6
S11305708A95F1F7000008950F931F93CF93DF93AB
S1130580082F162FD42FC6E0802F0E94A102812F9E
S11305900E94A1028D2F0E94A1020E94B602C150A6
S11305A099F7DF91CF911F910F9108954FEF6FEF5E
S11305B080E00E94BC0208954FEF60E080E00E945A
S11305C0BC02089540E06FEF80E00E94BC020895F1
S11305D040E06FEF8FEF0E94BC0208954FEF60E0A0
S11305E08FEF0E94BC02089540E060E08FEF0E940C
S11305F0BC0208954FEF6FEF8FEF0E94BC02089585
S11306000E94E70581110DC00E945D00882321F03E
S11306108091D201823038F40E945D00811105C0BE
S1130620089581E0089582E0089583E008958BE7BA
S113063090E00E940F028091D2018F5F0E94D60049
S11306400E947B018EE20E947B0188E890E00E9478
S11306501E0208950E94EE0289E990E00E940F02B2
S11306602FEF8EEA9BE4215080409040E1F700C0D8
S113067000000E9417031092D4011092D3010E942B
S1130680E2020E949D000E94EC0508950E94F4027B
S11306900E94AA05E7E4FDE03197F1F700C00000ED
S11306A02CB12091D201283008F049C0FC010190FE
S11306B00020E9F73197E81BF90B7197F8F06AEA23
S11306C070E08AEB90E00E942B02FFEF2DE349E4F7
S11306D0F15020404040E1F700C000008091D20179
S11306E0883049F40E94F40269EC70E08AED90E0ED
S11306F00E942B0239C00E94170336C02091D201F8
S1130700E0E12E9F90011124BC01C90184519E4F48
S11307100E9494088091D2018F5F8093D2018091CE
S1130720D201883049F40E94F40269EC70E08AED49
S113073090E00E942B0218C00E94170315C06BEEB4
S113074070E08AEF90E00E942B02FFEF2DE349E472
S1130750F15020404040E1F700C0000067E071E044
S113076088E191E00E942B020E949D000E94E20217
S1130770089581E08093D3010E94DC0268E271E075
S113078089E391E00E942B020E9495000E945D0083
S11307908111FCCF08958F929F92AF92BF92CF9216
S11307A0DF92EF92FF921F93CF93DF9311E00F2E0E
S11307B0F6EE8F2E912CA12CB12CF02DD0E007C099
S11307C0DF5F2EE1820E911CA11CB11C1F5F75011D
S11307D064018EE1C81AD108E108F108D11108C0FA
S11307E00E94D602C8C08091D201811122C035C0B6
S11307F0D13019F40E94E202BEC0D23019F40E9432
S1130800DC02B9C0D33019F40E94F402B4C0D4306D
S113081019F40E94E802AFC0D53019F40E94FA021C
S1130820AAC0D63001F70E94EE028091D20188233B
S1130830B9F0C0E020E1C29FC001112484519E4F51
S11308400E940F020E94A500C701B6010E9459052B
S1130850CF5F8091D201C81768F3173008F4B0CF86
S1130860ECEEF1E001900020E9F73197EC5EF14005
S1130870ACEFB1E00D900020E9F7CD018D5F914020
S11308802091D2018E0F9F1F820F911D0E94890813
S11308900E9484086091D2012091D20170E00E94EC
S11308A0E807019630E08217930729F48AE491E07F
S11308B00E940F023FC00E9484086091D2012091DF
S11308C0D20170E00E94E807029630E02F5F3F4FAC
S11308D08217930739F46AE571E08DE691E00E948E
S11308E02B0228C00E9484086091D2012091D20179
S11308F070E00E94E807039630E02E5F3F4F8217B6
S1130900930739F46EE771E08EE891E00E942B02C0
S113091011C00E9484086091D20170E00E94E8072F
S113092082959295907F9827807F982784519E4F37
S11309300E940F021092D2010E94F4020E94AD00A4
S11309400E945D008823E1F31092D3010E94DC022F
S11309506FE971E089E391E00E942B020E94950007
S11309600E945D008111FCCF0E9417030E94EC05D8
S11309700E94E20205C08091D20181115ACF20CF9A
S1130980DF91CF911F91FF90EF90DF90CF90BF90B8
S1130990AF909F908F9008958091D2018230E8F4B7
S11309A00E94F40260EB71E081EC91E00E942B0262
S11309B00E9495002FEF88E09DE3215080409040F5
S11309C0E1F700C000000E945D008111FCCF0E948D
S11309D017030E94E2020E94EC0508950E9400039E
S11309E08093D4018091D301882319F0813099F048
S11309F008958091D401823029F0833049F0813008
S1130A0071F403C00E94B90308950E944603089537
S1130A100E94CC0408958091D4010E94CB030895D0
S1130A201F920F920FB60F9211248F939F93AF933F
S1130A30BF938091DB019091DC01A091DD01B09125
S1130A40DE010196A11DB11D8093DB019093DC01B1
S1130A50A093DD01B093DE018091D5019091D60180
S1130A60A091D701B091D8010196A11DB11D809329
S1130A70D5019093D601A093D701B093D80180916A
S1130A80D9019091DA0101969093DA018093D9010A
S1130A90BF91AF919F918F910F900FBE0F901F90B8
S1130AA018958BE083BF12BE8DE78CBF82E089BFAF
S1130AB00895AB01BC011092DB011092DC0110928D
S1130AC0DD011092DE018091DB019091DC01A091A7
S1130AD0DD01B091DE0184179507A607B70799F7E2
S1130AE008952AB128612AB920B5266820BDDC0101
S1130AF0CB01880F991FAA1FBB1F880F991FAA1F1C
S1130B00BB1F9C01AD01220F331F441F551F220F31
S1130B10331F441F551F60E072E18AE790E00E9492
S1130B20FC078FEF820F89B9DA01C9010197A10986
S1130B30B109892F9A2FAB2FBB2780BD089560E898
S1130B4075E280E090E00E94710508955F9BFECFFE
S1130B508CB10895CF930E94A6058A30E1F38D30BD
S1130B6061F0C0E0EC2FF0E0E459FD4F8083CF5FEB
S1130B700E94A6058D30B1F701C0C0E0EC2FF0E073
S1130B80E459FD4F10828CE692E0CF9108955D9B6D
S1130B90FECF8CB908950F931F93CF93FC018081EE
S1130BA0882359F08F01C0E00E94C705CF5FF80188
S1130BB0EC0FF11D80818111F7CFCF911F910F911F
S1130BC008950E94CB058AE00E94C70508958BB161
S1130BD0881F8827881F0895CF930E94E7058823DC
S1130BE061F0C2E30E94A605C150E1F787E49DE0ED
S1130BF00197F1F700C000008CB1CF9108950E94D5
S1130C0013060C94F4060E94ED0658F00E94E606C2
S1130C1040F029F45F3F29F00C94DD0651110C9447
S1130C2028070C94E3060E94050768F39923B1F39F
S1130C30552391F3951B550BBB27AA2762177307FE
S1130C40840738F09F5F5F4F220F331F441FAA1F92
S1130C50A9F335D00E2E3AF0E0E832D0915050404E
S1130C60E695001CCAF72BD0FE2F29D0660F771FFC
S1130C70881FBB1F261737074807AB07B0E809F0E2
S1130C80BB0B802DBF01FF2793585F4F3AF09E3F67
S1130C90510578F00C94DD060C9428075F3FE4F3CB
S1130CA0983ED4F3869577956795B795F7959F5FAA
S1130CB0C9F7880F911D9695879597F90895E1E0F6
S1130CC0660F771F881FBB1F621773078407BA0755
S1130CD020F0621B730B840BBA0BEE1F88F7E095B0
S1130CE008950E940D0788F09F5798F0B92F99270F
S1130CF0B751B0F0E1F0660F771F881F991F1AF003
S1130D00BA95C9F714C0B13091F00E942707B1E039
S1130D1008950C942707672F782F8827B85F39F038
S1130D20B93FCCF3869577956795B395D9F73EF49B
S1130D3090958095709561957F4F8F4F9F4F089543
S1130D40E89409C097FB3EF4909580957095619561
S1130D507F4F8F4F9F4F9923A9F0F92F96E9BB2717
S1130D609395F695879577956795B795F111F8CF93
S1130D70FAF4BB0F11F460FF1BC06F5F7F4F8F4FFE
S1130D809F4F16C0882311F096E911C0772321F0F4
S1130D909EE8872F762F05C0662371F096E8862F8C
S1130DA070E060E02AF09A95660F771F881FDAF7E3
S1130DB0880F9695879597F9089597F99F6780E826
S1130DC070E060E008959FEF80EC089500240A9499
S1130DD01616170618060906089500240A94121612
S1130DE01306140605060895092E0394000C11F445
S1130DF0882352F0BB0F40F4BF2B11F460FF04C0F2
S1130E006F5F7F4F8F4F9F4F089557FD9058440F4A
S1130E10551F59F05F3F71F04795880F97FB991F55
S1130E2061F09F3F79F08795089512161306140612
S1130E30551FF2CF4695F1DF08C01616170618069F
S1130E40991FF1CF86957105610508940895E8947A
S1130E50BB2766277727CB0197F908950E9441079E
S1130E600C94F4060E94E60638F00E94ED0620F089
S1130E70952311F00C94DD060C94E30611240C94D4
S1130E8028070E94050770F3959FC1F3950F50E062
S1130E90551F629FF001729FBB27F00DB11D639F28
S1130EA0AA27F00DB11DAA1F649F6627B00DA11DCE
S1130EB0661F829F2227B00DA11D621F739FB00D74
S1130EC0A11D621F839FA00D611D221F749F3327E4
S1130ED0A00D611D231F849F600D211D822F762F7D
S1130EE06A2F11249F5750409AF0F1F088234AF05A
S1130EF0EE0FFF1FBB1F661F771F881F91505040C6
S1130F00A9F79E3F510580F00C94DD060C94280748
S1130F105F3FE4F3983ED4F3869577956795B7954C
S1130F20F795E7959F5FC1F7FE2B880F911D969566
S1130F30879597F908950E940D07E8F09E37E8F029
S1130F409639B8F49E3848F4672F782F8827985F2D
S1130F50F9CF86957795679593959539D0F3B62F04
S1130F60B1706B0F711D811D20F48795779567957E
S1130F7093950C94BF070C94DA070C9428078823E4
S1130F8071F4772321F09850872B762F07C06623BE
S1130F9011F499270DC09051862B70E060E02AF07F
S1130FA09A95660F771F881FDAF7880F96958795AD
S1130FB097F908959F3F31F0915020F487957795E4
S1130FC06795B795880F911D9695879597F908951C
S1130FD097FB072E16F4009407D077FD09D00E94E2
S1130FE0240807FC05D03EF4909581959F4F089501
S1130FF0709561957F4F0895A1E21A2EAA1BBB1B21
S1131000FD010DC0AA1FBB1FEE1FFF1FA217B307D0
S1131010E407F50720F0A21BB30BE40BF50B661FE6
S1131020771F881F991F1A9469F7609570958095AA
S113103090959B01AC01BD01CF010895EE0FFF1FF8
S11310400590F491E02D0994AA1BBB1B51E107C044
S1131050AA1FBB1FA617B70710F0A61BB70B881F44
S1131060991F5A95A9F780959095BC01CD010895D3
S11310708F929F92AF92BF92CF92DF92EF92FF92A4
S1131080CF93DF93EC01688179818A819B8161151B
S113109071058105910521F464E279ED8BE597E012
S11310A02DE133EF41E050E00E949B0849015A01D1
S11310B09B01AC01A7EAB1E40E94BA086B017C0170
S11310C0ACEEB4EFA50194010E94C808DC01CB0189
S11310D08C0D9D1DAE1DBF1DB7FF03C00197A10957
S11310E0B04888839983AA83BB839F77DF91CF918C
S11310F0FF90EF90DF90CF90BF90AF909F908F9034
S113110008950E943808089580E690E00E94380807
S11311100895A0E0B0E08093600090936100A093F4
S11311206200B09363000895FB01DC0101900D920D
S11311300020E1F70895052E97FB1EF400940E9409
S1131140B20857FD07D00E94FC0707FC03D04EF4F9
S11311500C94B20850954095309521953F4F4F4FD0
S11311605F4F089590958095709561957F4F8F4F4F
S11311709F4F08950E94CD08A59F900DB49F900D98
S1131180A49F800D911D11240895B7FF0C94BA08F3
S11311900E94BA08821B930B0895A29FB001B39FCB
S11311A0C001A39F700D811D1124911DB29F700D6C
S10F11B0811D1124911D0895F894FFCFB7
S11311BC0100000041504C494B4143494A41204AEB
S11311CC45205A41504F434554410020556E657398
S11311DC692073766F6A20002020202020697A62AF
S11311EC6F723A202020202000205041204341419E
S11311FC414F204D41434F2120006F707365672090
S113120C6B6172616B74657261005072656B6F72A5
S113121C6163696C61207369002062726F6A206972
S113122C7A626F7261203A292000556E656C6120D8
S113123C7369206D6178696D756D002020204954A7
S113124C2048555254532120200020202053544F21
S113125C50204954212000202042455A20454D4F0E
S113126C43494A45212020005052495449534E4980
S113127C20544153544552006920736163656B617A
S113128C6A206F646C756B7500204F747075737481
S113129C6920746173746572200020496469207537
S11312AC206B6166616E75212000202020206974FA
S11312BC277320686F7421202020202000202044D4
S11312CC726F70206974206C696B65202000696BE7
S11312DC616B766520656D6F63696A6521005A617F
S11312EC67726C69206E656B6F672062657A006942
S11312FC207A61706F636E6920706F6E6F766F0009
S113130C64766120697A626F7261206D61636F200B
S113131C004D6F72617320756E6574692062617221
S105132C20009B
S9030000FC
