S014000043686F696365204D616B65722E73726563B5
S11300000C9433000C9450000C9450000C94500049
S11300100C9450000C9450000C9450000C9450001C
S11300200C9450000C9450000C94F8050C9450005F
S11300300C9450000C9450000C9450000C945000FC
S11300400C9450000C9450000C9450000C945000EC
S11300500C945000E000E200E400E600E800EA004E
S1130060EC00EE00F00011241FBECFE5D8E0DEBFA7
S1130070CDBF11E0A0E6B0E0E0E9F5E102C00590F3
S11300800D92A43CB107D9F722E0A4ECB1E001C081
S11300901D92A038B207E1F70E94D3020C94C60A5D
S11300A00C94000080E090E0FC01ED52FE4F1082C1
S11300B001968C309105C1F70895CF990AC08091BB
S11300C0D301893140F4E3EDF1E080818F5F8083D7
S11300D002C01092D3019091D30181E0993109F0CB
S11300E080E09091D301993118F099E19093D30174
S11300F008950895CF92DF92EF92FF926A017B01F7
S1130100682F70E080E090E00E948A080E94190342
S11301100E940F03C701B6010E944A060E941403FD
S1130120FF90EF90DF90CF90089542E350E060E0BD
S113013070E084EC0E947A00089544E650E060E0A8
S113014070E08CE30E947A00089544E650E060E099
S113015070E08FEF0E947A000895CF93DF9360E000
S113016070E088E492E40E941903D3E01AC00E946C
S11301700F0362E370E080E090E00E944A060E9470
S1130180140362E370E080E090E00E944A06C150EC
S113019071F760E971E080E090E00E944A06D15076
S11301A011F0C3E0E4CFDF91CF91089590E0FC011A
S11301B03197E930F105B0F4E65DFF4F0C94080A7D
S11301C081E3089582E3089583E3089584E3089521
S11301D085E3089586E3089587E3089588E3089501
S11301E089E3089580E3089520E03AEC4AE95BE36B
S11301F00E94E609822F0E94D600089520E03AEC7E
S11302004AE95BE30E94E60920E031EE45EF55E060
S11302100E94E609822F0E94D600089520E031EE64
S113022045EF55E00E94E60920E836E948E950E048
S11302300E94E609822F0E94D600089520E836E93C
S113024048E950E00E94E60920E432E44FE050E03F
S11302500E94E609822F0E94D600089520E432E429
S11302604FE050E00E94E60920EA36E841E050E021
S11302700E94E609822F0E94D600089520EA36E8FB
S113028041E050E00E94E60920E137E240E050E01E
S11302900E94E609822F0E94D600089520E137E2E9
S11302A040E050E00E94E60928EE33E040E050E0F0
S11302B00E94E609822F0E94D600089528EE33E0BA
S11302C040E050E00E94E60924E630E040E050E0DF
S11302D00E94E609822F0E94D600089524E630E0A9
S11302E040E050E00E94E6092AE030E040E050E0BF
S11302F00E94E609822F0E94D60008952AE030E089
S113030040E050E00E94E609862F0E94D60008953E
S113031011B880E280B9089524EA34E844E926BF9C
S113032006B607FEFDCF91B1987F983011F0903159
S1130330B1F783B936BF06B607FEFDCF91B1987FFA
S1130340903211F0983529F446BF06B604FCFDCF6F
S1130350E6CF089584E986BF06B604FCFDCF089570
S113036083B984E886BF06B607FEFDCF91B1987FB6
S113037081E0983209F480E00895CF93C82F862F46
S11303800E948C018C2F0E94B0010E94AA01CF917F
S11303900895CF93C82F8091DF0184608093DF019B
S11303A06EE70E94BD0185E88A95F1F70000C295C9
S11303B0C07F8091DF016EE78C2B0E94BD0180918C
S11303C0DF018B7F8093DF016EE70E94BD0185E82A
S11303D08A95F1F70000CF910895CF93DF93C82F4A
S11303E0D82FD295DF70611109C08091DF018E7F13
S11303F08093DF016EE70E94BD0108C08091DF0198
S113040081608093DF016EE70E94BD018D2F0E9401
S1130410C9018C2F0E94C901DF91CF910895CF9318
S1130420C82F8091DF0181608093DF016EE70E9415
S1130430BD018C2F82958F700E94C9018C2F0E9460
S1130440C901CF91089560E081E00E94ED0187E445
S11304509DE00197F1F700C0000008951092DF01BC
S11304600E9488018FE295E70197F1F700C0000030
S113047083E00E94C9018FE39FE10197F1F700C077
S1130480000083E00E94C90187EC90E00197F1F736
S113049000C0000083E00E94C9018FEC97E001973F
S11304A0F1F700C0000082E00E94C9018FEC97E0E0
S11304B00197F1F700C0000060E088E20E94ED01BE
S11304C08FEC97E00197F1F700C0000060E08CE04A
S11304D00E94ED018FEC97E00197F1F700C0000056
S11304E060E086E00E94ED018FEC97E00197F1F760
S11304F000C000008091DF0188608093DF016EE717
S11305000E94BD018091DF018D7F8093DF016EE742
S11305100E94BD010E942302089590E4699F800D0A
S1130520112460E080680E94ED0108950F931F93E9
S1130530CF93FC018081882359F08F01C0E00E9491
S11305400F02CF5FF801EC0FF11D80818111F7CF0D
S1130550CF911F910F910895CF93DF93EC010E94E7
S1130560230260E080E80E94ED01CE010E94960221
S1130570DF91CF910895CF93DF93EC0160E080EC9D
S11305800E94ED01CE010E949602DF91CF91089561
S1130590CF93DF93EB010E94AC02CE010E94BB0219
S11305A0DF91CF91089578940E942B030E942E022C
S11305B00E94ED020E9442060E940A030E949506D0
S11305C00E9452000E9479000E94C7038FE690E0C7
S11305D00E94D7060E94D605FDCF8FE78ABB80E82C
S11305E08BBB17BA8FEF88BB84BB15BA82EB81BB78
S11305F08CE482BB089591B321E030E002C0220F65
S1130600331F8A95E2F7292B21BB089587E00E94C6
S1130610FB0208950E9406038AE485BD089585B50A
S11306208F7C806285BD089585B58F7C85BD979844
S1130630089520E030E04FE753E40E94180920E0D9
S113064030E048EC52E40E94E9070E9485090E94C8
S11306505B0863BD08950895DE9A00C00000DE982B
S113066083E08A95F1F700C00895DE9A83E08A95C5
S1130670F1F700C0DE9800C0000008951F93CF93E7
S1130680DF93182FC8E0D0E8812F8D2319F00E9442
S1130690350302C00E942C03D695C150A9F7DF91FF
S11306A0CF911F910895DE9885E88A95F1F70000AF
S11306B008950F931F93CF93DF93082F162FD42FF2
S11306C0C6E0802F0E943E03812F0E943E038D2F9F
S11306D00E943E030E945303C15099F7DF91CF91CA
S11306E01F910F9108954FEF6FEF80E00E9459031F
S11306F008954FEF60E080E00E945903089540E0C0
S11307006FEF80E00E945903089540E06FEF8FEF90
S11307100E94590308954FEF60E08FEF0E94590340
S1130720089540E060E08FEF0E94590308954FEF71
S11307306FEF8FEF0E94590308950E94D90781112A
S11307400DC00E945D00882321F08091C401823095
S113075038F40E945D00811105C0089581E0089578
S113076082E0089583E0089589E890E00E94AC0255
S11307708091C4018F5F0E94D6000E940F028EE216
S11307800E940F0286E990E00E94BB0208950E9435
S11307908B0387EA90E00E94AC022FEF8EEA9BE481
S11307A0215080409040E1F700C000000E94B40353
S11307B01092C6011092C5010E947F030E949D0001
S11307C00E94DE070895CF93DF930E9491030E9455
S11307D0A006EC0187E49DE00197F1F700C000005A
S11307E08CB18091C401883008F056C0FE0101909C
S11307F00020E9F73197EC1BFD0B7197F8F068EBDB
S113080070E088EC90E00E94C8029FEF2DE389E439
S1130810915020408040E1F700C000008091C40165
S1130820883049F40E94910367ED70E088EE90E00F
S11308300E94C80246C00E94B40343C08091C40110
S113084020E1829FC0011124BE0180529E4F0E946C
S11308507E0A8091C4018F5F8093C4016091C401BA
S113086070E080E090E00E94DD0689EF90E00E9455
S1130870C106CE010E94D7068091C401883049F494
S11308800E94910367ED70E088EE90E00E94C80238
S113089018C00E94B40315C06CEF70E08BE091E0C7
S11308A00E94C8028FEF9DE329E4815090402040CC
S11308B0E1F700C000006CE171E08DE291E00E947C
S11308C0C8020E949D000E947F030E94DE07DF9100
S11308D0CF91089581E08093C5010E9479036DE36F
S11308E071E08EE491E00E94C8020E9495000E948B
S11308F05D008111FCCF08958F929F92AF92BF92B9
S1130900CF92DF92EF92FF920F931F93CF93DF93D7
S113091001E00F2EFCE38F2E912CA12CB12CF02D95
S113092010E007C01F5F2AE0820E911CA11CB11CBD
S11309300F5F750164018AE0C81AD108E108F10863
S113094061E080E00E948D028FE591E00E949602B2
S1130950111108C00E947303F3C08091C401811176
S11309605BC05DC0113019F40E947F03E9C01230EE
S113097019F40E947903E4C0133019F40E9491031E
S1130980DFC0143019F40E948503DAC0153019F45D
S11309900E949703D5C0163001F70E948B03809103
S11309A0C401811139C03EC00E94230260E080E08E
S11309B00E948D0261E080E00E948D028FE591E04B
S11309C00E949602C15081F761E080E00E948D028E
S11309D08FE591E00E94960260E080E00E948D0223
S11309E020E1D29FC001112480529E4F0E94AC028C
S11309F061E080E00E948D028FE591E00E94960202
S1130A000E94A500C701B6010E944A06DF5F8091DB
S1130A10C401D81710F003C0D0E0C3E0C5CF07303D
S1130A2008F480CFC0EED1E009900020E9F72197C7
S1130A30C05ED140E0EFF1E001900020E9F7CF0182
S1130A40815F91402091C401C80FD91FC20FD11DED
S1130A500E9462068C0F9D1F0E94730A0E946E0AF8
S1130A606091C4012091C40170E00E94D2090196F2
S1130A7030E08217930739F460E771E081E891E090
S1130A800E94C80236C0C3E00E94230260E080E0F6
S1130A900E948D0261E080E00E948D028FE591E06A
S1130AA00E949602C15081F761E080E00E948D02AD
S1130AB08FE591E00E94960260E080E00E948D0242
S1130AC00E946E0A6091C40170E00E94D20982956E
S1130AD09295907F9827807F982780529E4F0E94FE
S1130AE0AC0261E080E00E948D028FE591E00E94FB
S1130AF096021092C4010E9491030E94AD000E94CC
S1130B005D008823E1F31092C5010E94790361E935
S1130B1071E08EE491E00E94C8020E9495000E9458
S1130B205D008111FCCF0E94B4030E947F030E94E8
S1130B309D008FE691E00E94D7060E94DE0705C063
S1130B408091C401811168CFEDCEDF91CF911F91C7
S1130B500F91FF90EF90DF90CF90BF90AF909F9058
S1130B608F9008958091C4018230F8F40E9491031B
S1130B7062EA71E083EB91E00E94C8020E94950052
S1130B802FEF88E09DE3215080409040E1F700C0C2
S1130B9000000E945D008111FCCF0E94B4030E94FA
S1130BA07F030E949D000E94DE0708950E949D031A
S1130BB08093C6018091C501882319F0813099F092
S1130BC008958091C601823029F0833049F0813044
S1130BD071F403C00E946A0408950E94E303089517
S1130BE00E94B20508958091C6010E947C04089574
S1130BF01F920F920FB60F9211248F939F93AF936E
S1130C00BF938091CF019091D001A091D101B09177
S1130C10D2010196A11DB11D8093CF019093D00103
S1130C20A093D101B093D2018091C9019091CA01DE
S1130C30A091CB01B091CC010196A11DB11D80936F
S1130C40C9019093CA01A093CB01B093CC018091C8
S1130C50CD019091CE0101969093CE018093CD0168
S1130C608091C7019091C80101969093C801809327
S1130C70C701BF91AF919F918F910F900FBE0F90BD
S1130C801F9018958BE083BF12BE8DE78CBF82E066
S1130C9089BF0895AB01BC011092CF011092D0011D
S1130CA01092D1011092D2018091CF019091D00184
S1130CB0A091D101B091D20184179507A607B70777
S1130CC099F708958091C7019091C80108952AB1B8
S1130CD028612AB920B5266820BDDC01CB01880F24
S1130CE0991FAA1FBB1F880F991FAA1FBB1F9C0116
S1130CF0AD01220F331F441F551F220F331F441F02
S1130D00551F60E072E18AE790E00E94E6098FEFE8
S1130D10820F89B9DA01C9010197A109B109892FA3
S1130D209A2FAB2FBB2780BD089560E875E280E061
S1130D3090E00E94670608955F9BFECF8CB10895F2
S1130D40CF930E949C068A30E1F38D3061F0C0E0BD
S1130D50EC2FF0E0E05AFD4F8083CF5F0E949C06A9
S1130D608D30B1F701C0C0E0EC2FF0E0E05AFD4F48
S1130D70108280E692E0CF9108955D9BFECF8CB9FE
S1130D8008950F931F93CF93FC018081882359F01A
S1130D908F01C0E00E94BD06CF5FF801EC0FF11D8A
S1130DA080818111F7CFCF911F910F9108950E94F7
S1130DB0C1068AE00E94BD060895CF92DF92EF92A9
S1130DC0FF92CF93DF93CDB7DEB72B970FB6F8948E
S1130DD0DEBF0FBECDBF6B017C018BE0E4E6F0E02B
S1130DE0DE01119601900D928A95E1F7C701B601D3
S1130DF00E94F4008983C701B6010E94FE008A8321
S1130E00C701B6010E940E018B83C701B6010E947F
S1130E101E018C83C701B6010E942E018D83C70178
S1130E20B6010E943E018E83C701B6010E944E01A5
S1130E308F83C701B6010E945E018887C701B6018E
S1130E400E946E018987C701B6010E947E018A87CC
S1130E508981803309F07DC08A81803309F07EC0A6
S1130E608B81803309F07DC08C81803309F079C097
S1130E708D81803309F075C08E81803309F071C093
S1130E808F81803309F06DC08885803309F069C093
S1130E908985803309F065C0CE010A960E94C10697
S1130EA07BC08C81803389F48D81803371F48E8191
S1130EB0803359F48F81803341F48885803329F459
S1130EC0CE0109960E94C10667C08B81803309F068
S1130ED04DC08C81803309F049C08D81803309F085
S1130EE045C08E81803309F041C08F818033F1F594
S1130EF0CE0108960E94C1064FC08C81803359F4FC
S1130F008D81803341F48E81803329F4CE0107969C
S1130F100E94C10641C08B81803389F58C81803366
S1130F2071F58D81803359F5CE0106960E94C10674
S1130F3033C08C81803329F4CE0105960E94C1060A
S1130F402BC08B818033F9F4CE0104960E94C10634
S1130F5023C0CE0101960E94C1061EC0803351F405
S1130F60B4CF8B81803309F0B0CF9BCF8B8180339A
S1130F7091F6C3CF803379F2803351F4E2CF8B8181
S1130F808033F9F6D6CFCE0103960E94C10604C081
S1130F90CE0102960E94C1062B960FB6F894DEBFCE
S1130FA00FBECDBFDF91CF91FF90EF90DF90CF9038
S1130FB008958BB1881F8827881F089582E39CB108
S1130FC0E7E4FDE03197F1F700C000008150B9F784
S1130FD008950E94FD070C94DE080E94D70858F07B
S1130FE00E94D00840F029F45F3F29F00C94C70810
S1130FF051110C9412090C94CD080E94EF0868F367
S11310009923B1F3552391F3951B550BBB27AA27BD
S113101062177307840738F09F5F5F4F220F331FF7
S1131020441FAA1FA9F335D00E2E3AF0E0E832D0BF
S113103091505040E695001CCAF72BD0FE2F29D0C2
S1131040660F771F881FBB1F261737074807AB0794
S1131050B0E809F0BB0B802DBF01FF2793585F4F09
S11310603AF09E3F510578F00C94C7080C9412098D
S11310705F3FE4F3983ED4F3869577956795B795EB
S1131080F7959F5FC9F7880F911D9695879597F9F6
S11310900895E1E0660F771F881FBB1F621773076F
S11310A08407BA0720F0621B730B840BBA0BEE1F84
S11310B088F7E09508950E94F70888F09F5798F004
S11310C0B92F9927B751B0F0E1F0660F771F881F49
S11310D0991F1AF0BA95C9F714C0B13091F00E9463
S11310E01109B1E008950C941109672F782F88270E
S11310F0B85F39F0B93FCCF3869577956795B3958A
S1131100D9F73EF490958095709561957F4F8F4FF8
S11311109F4F0895E89409C097FB3EF490958095FD
S1131120709561957F4F8F4F9F4F9923A9F0F92FA9
S113113096E9BB279395F695879577956795B79527
S1131140F111F8CFFAF4BB0F11F460FF1BC06F5F0D
S11311507F4F8F4F9F4F16C0882311F096E911C01F
S1131160772321F09EE8872F762F05C0662371F040
S113117096E8862F70E060E02AF09A95660F771F54
S1131180881FDAF7880F9695879597F9089597F948
S11311909F6780E870E060E008959FEF80EC089519
S11311A000240A9416161706180609060895002442
S11311B00A9412161306140605060895092E0394BC
S11311C0000C11F4882352F0BB0F40F4BF2B11F430
S11311D060FF04C06F5F7F4F8F4F9F4F089557FD8F
S11311E09058440F551F59F05F3F71F04795880F91
S11311F097FB991F61F09F3F79F087950895121628
S113120013061406551FF2CF4695F1DF08C01616D3
S113121017061806991FF1CF869571056105089484
S11312200895E894BB2766277727CB0197F908959B
S11312300E942B090C94DE080E94D00838F00E940A
S1131240D70820F0952311F00C94C7080C94CD080E
S113125011240C9412090E94EF0870F3959FC1F3B6
S1131260950F50E0551F629FF001729FBB27F00D50
S1131270B11D639FAA27F00DB11DAA1F649F6627A5
S1131280B00DA11D661F829F2227B00DA11D621FF4
S1131290739FB00DA11D621F839FA00D611D221FAE
S11312A0749F3327A00D611D231F849F600D211D92
S11312B0822F762F6A2F11249F5750409AF0F1F015
S11312C088234AF0EE0FFF1FBB1F661F771F881F7E
S11312D091505040A9F79E3F510580F00C94C708E7
S11312E00C9412095F3FE4F3983ED4F38695779506
S11312F06795B795F795E7959F5FC1F7FE2B880F24
S1131300911D9695879597F908950E94F708E8F03E
S11313109E37E8F09639B8F49E3848F4672F782F52
S11313208827985FF9CF8695779567959395953932
S1131330D0F3B62FB1706B0F711D811D20F487950A
S11313407795679593950C94A9090C94C4090C940A
S11313501209882371F4772321F09850872B762F74
S113136007C0662311F499270DC09051862B70E0B5
S113137060E02AF09A95660F771F881FDAF7880FC6
S11313809695879597F908959F3F31F0915020F4F1
S1131390879577956795B795880F911D969587954D
S11313A097F9089597FB072E16F4009407D077FD5C
S11313B009D00E940E0A07FC05D03EF49095819551
S11313C09F4F0895709561957F4F0895A1E21A2E5D
S11313D0AA1BBB1BFD010DC0AA1FBB1FEE1FFF1FD5
S11313E0A217B307E407F50720F0A21BB30BE40B25
S11313F0F50B661F771F881F991F1A9469F760956C
S11314007095809590959B01AC01BD01CF01089525
S1131410EE0FFF1F0590F491E02D0994AA1BBB1B4E
S113142051E107C0AA1FBB1FA617B70710F0A61BE0
S1131430B70B881F991F5A95A9F780959095BC0101
S1131440CD0108958F929F92AF92BF92CF92DF9277
S1131450EF92FF92CF93DF93EC01688179818A81C7
S11314609B81611571058105910521F464E279ED93
S11314708BE597E02DE133EF41E050E00E94850ACF
S113148049015A019B01AC01A7EAB1E40E94A40AF4
S11314906B017C01ACEEB4EFA50194010E94B20A89
S11314A0DC01CB018C0D9D1DAE1DBF1DB7FF03C01C
S11314B00197A109B04888839983AA83BB839F7746
S11314C0DF91CF91FF90EF90DF90CF90BF90AF90DE
S11314D09F908F9008950E94220A089580E690E0DC
S11314E00E94220A0895A0E0B0E0809360009093E7
S11314F06100A0936200B09363000895FB01DC01D6
S113150001900D920020E1F70895052E97FB1EF43B
S113151000940E949C0A57FD07D00E94E60907FC2C
S113152003D04EF40C949C0A509540953095219527
S11315303F4F4F4F5F4F08959095809570956195FB
S11315407F4F8F4F9F4F08950E94B70AA59F900D1C
S1131550B49F900DA49F800D911D11240895B7FF91
S11315600C94A40A0E94A40A821B930B0895A29FC0
S1131570B001B39FC001A39F700D811D1124911D63
S1131580B29F700D811D1124911D0895F894FFCF11
S11315900100000030303030303030303030004125
S11315A0504C494B4143494A41204A45205A4150F5
S11315B04F43455441203C330020556E65736920E8
S11315C073766F6A20002020202020697A626F726F
S11315D03A20202020200020504120434141414F07
S11315E0204D41434F2120006F70736567206B616C
S11315F072616B74657261005072656B6F726163C6
S1131600696C61207369002062726F6A20697A6272
S11316106F7261203A292000556E656C61207369F0
S1131620206D6178696D756D002E200020202049A1
S1131630542048555254532120200053544F5020D5
S113164049542C2044414D4E204954002020424509
S11316505A20454D4F43494A4521202000505249C4
S11316605449534E49205441535445520069207300
S11316706163656B616A206F646C756B7500204FE4
S113168074707573746920746173746572200020BA
S11316902020202020202020202020202020200066
S11316A0656E6A6F7920746865206D6F6D656E7400
S11316B0004472696E6B20616C636F686F6C2026E6
S11316C00069207A61706F636E6920706F6E6F7647
S11316D06F0064766120697A626F7261206D616364
S11316E06F20004D6F72617320756E65746920629E
S10716F061722000FF
S9030000FC
