S014000043686F696365204D616B65722E73726563B5
S11300000C942A000C9447000C9447000C9447006D
S11300100C9447000C9447000C9447000C94470040
S11300200C9447000C9447000C94A3020C944700D2
S11300300C9447000C9447000C9447000C94470020
S11300400C9447000C9447000C9447000C94470010
S11300500C94470011241FBECFE5D8E0DEBFCDBF0E
S113006010E0A0E6B0E0EAE1FBE002C005900D92EA
S1130070AA3AB107D9F720E0AAEAB0E001C01D927C
S1130080AC3EB207E1F70E9493010C948B050C94EB
S11300900000CF92DF92EF92FF926A017B01682FFA
S11300A070E080E090E00E9421040E94D7010E9449
S11300B0CD01C701B6010E94EC020E94D201FF905B
S11300C0EF90DF90CF90089544E650E060E070E058
S11300D082E30E94490008950E946400089511B8C3
S11300E080E280B9089524EA34E844E926BF06B6DC
S11300F007FEFDCF91B1987F983011F09031B1F7A0
S113010083B936BF06B607FEFDCF91B1987F903212
S113011011F0983529F446BF06B604FCFDCFE6CFAE
S1130120089584E986BF06B604FCFDCF089583B91B
S113013084E886BF06B607FEFDCF91B1987F81E0C3
S1130140983209F480E00895CF93C82F862F0E9437
S113015073008C2F0E9497000E949100CF91089504
S1130160CF93C82F8091B70084608093B7006EE767
S11301700E94A40085E88A95F1F70000C295C07F2B
S11301808091B7006EE78C2B0E94A4008091B70089
S11301908B7F8093B7006EE70E94A40085E88A9560
S11301A0F1F70000CF910895CF93DF93C82FD82F94
S11301B0D295DF70611109C08091B7008E7F809362
S11301C0B7006EE70E94A40008C08091B700816068
S11301D08093B7006EE70E94A4008D2F0E94B000A8
S11301E08C2F0E94B000DF91CF910895CF93C82F38
S11301F08091B70081608093B7006EE70E94A400ED
S11302008C2F82958F700E94B0008C2F0E94B000BA
S1130210CF91089560E081E00E94D40087E49DE0DE
S11302200197F1F700C0000008951092B7000E94F2
S11302306F008FE295E70197F1F700C0000083E0BB
S11302400E94B0008FE39FE10197F1F700C0000026
S113025083E00E94B00087EC90E00197F1F700C0C2
S1130260000083E00E94B0008FEC97E00197F1F763
S113027000C0000082E00E94B0008FEC97E001977C
S1130280F1F700C0000060E088E20E94D4008FEC27
S113029097E00197F1F700C0000060E08CE00E9455
S11302A0D4008FEC97E00197F1F700C0000060E004
S11302B086E00E94D4008FEC97E00197F1F700C02C
S11302C000008091B70088608093B7006EE70E94B9
S11302D0A4008091B7008D7F8093B7006EE70E94E1
S11302E0A4000E940A01089590E4699F800D1124DE
S11302F060E080680E94D40008950F931F93CF9309
S1130300FC018081882359F08F01C0E00E94F6002F
S1130310CF5FF801EC0FF11D80818111F7CFCF91F0
S11303201F910F91089578940E9415010E94AB01CA
S11303300E94E4020E94C8010E9432030E943C020F
S11303400E946C000E943F0280E690E00E947403C9
S11303500E949402FDCF8FE78ABB80E88BBB17BA5B
S11303608FEF88BB84BB15BA82EB81BB8CE482BB64
S1130370089591B321E030E002C0220F331F8A9523
S1130380E2F7292B21BB089587E00E94B901089563
S11303900E94C4018AE485BD089585B58F7C80627E
S11303A085BD089585B58F7C85BD9798089520E017
S11303B030E04FE753E40E94AF0420E030E048EC23
S11303C052E40E9480030E941C050E94F20363BD54
S11303D00895DE9A00C00000DE9883E08A95F1F764
S11303E000C00895DE9A83E08A95F1F700C0DE9894
S11303F000C0000008951F93CF93DF93182FC8E027
S1130400D0E8812F8D2319F00E94F20102C00E94CE
S1130410E901D695C150A9F7DF91CF911F910895B5
S1130420DE9885E88A95F1F7000008950F931F93ED
S1130430CF93DF93082F162FD42FC6E0802F0E946E
S1130440FB01812F0E94FB018D2F0E94FB010E9462
S11304501002C15099F7DF91CF911F910F91089528
S113046040E06FEF80E00E941602089540E060E0F3
S11304708FEF0E94160208950E94360208950E948A
S11304800A0160E080E00E94740187E790E00E9426
S11304907D012FEF8EEA9BE4215080409040E1F7EC
S11304A000C000000E940A0160E080E00E94740124
S11304B088E890E00E947D0161E080E00E94740180
S11304C089E990E00E947D010E9430021092AC0004
S11304D01092AB0008950E947A030895CF93C091BF
S11304E0AA000E943D03EC2FF0E0EE0FFF1FE8543A
S11304F0FF4F918380838091AA008F5F8093AA002D
S11305000E940A0160E080E00E947401E091AA0068
S1130510F0E0EE0FFF1FEA54FF4F808191810E94AB
S11305207D018CB1CF9108950E946B028093AC0041
S11305308091AB00811106C08091AC00813011F430
S11305400E946E0208951F920F920FB60F9211240B
S11305508F939F93AF93BF938091B3009091B40016
S1130560A091B500B091B6000196A11DB11D809374
S1130570B3009093B400A093B500B093B6008091FB
S1130580AD009091AE00A091AF00B091B000019683
S1130590A11DB11D8093AD009093AE00A093AF0058
S11305A0B093B0008091B1009091B2000196909305
S11305B0B2008093B100BF91AF919F918F910F9042
S11305C00FBE0F901F9018958BE083BF12BE8DE76E
S11305D08CBF82E089BF0895AB01BC011092B300C7
S11305E01092B4001092B5001092B6008091B3003E
S11305F09091B400A091B500B091B600841795070E
S1130600A607B70799F708952AB128612AB920B532
S1130610266820BDDC01CB01880F991FAA1FBB1FD0
S1130620880F991FAA1FBB1F9C01AD01220F331F06
S1130630441F551F220F331F441F551F60E072E1F2
S11306408AE790E00E9469058FEF820F89B9DA0189
S1130650C9010197A109B109892F9A2FAB2FBB2793
S113066080BD089560E875E280E090E00E94040394
S113067008955F9BFECF8CB10895CF930E943903F8
S11306808A30E1F38D3061F0C0E0EC2FF0E0E45308
S1130690FF4F8083CF5F0E9439038D30B1F701C0D3
S11306A0C0E0EC2FF0E0E453FF4F10828CEC90E0BC
S11306B0CF9108955D9BFECF8CB908950F931F933E
S11306C0CF93FC018081882359F08F01C0E00E9400
S11306D05A03CF5FF801EC0FF11D80818111F7CF30
S11306E0CF911F910F9108950E945E038AE00E94AA
S11306F05A0308958BB18095881F8827881F089511
S11307000E9494030C9475040E946E0458F00E9495
S1130710670440F029F45F3F29F00C945E04511102
S11307200C94A9040C9464040E94860468F399232D
S1130730B1F3552391F3951B550BBB27AA276217D9
S11307407307840738F09F5F5F4F220F331F441FE6
S1130750AA1FA9F335D00E2E3AF0E0E832D091501A
S11307605040E695001CCAF72BD0FE2F29D0660F07
S1130770771F881FBB1F261737074807AB07B0E84A
S113078009F0BB0B802DBF01FF2793585F4F3AF050
S11307909E3F510578F00C945E040C94A9045F3FCD
S11307A0E4F3983ED4F3869577956795B795F795D6
S11307B09F5FC9F7880F911D9695879597F90895BE
S11307C0E1E0660F771F881FBB1F6217730784075A
S11307D0BA0720F0621B730B840BBA0BEE1F88F769
S11307E0E09508950E948E0488F09F5798F0B92FE1
S11307F09927B751B0F0E1F0660F771F881F991F52
S11308001AF0BA95C9F714C0B13091F00E94A80447
S1130810B1E008950C94A804672F782F8827B85F57
S113082039F0B93FCCF3869577956795B395D9F7A9
S11308303EF490958095709561957F4F8F4F9F4FB3
S11308400895E89409C097FB3EF4909580957095BF
S113085061957F4F8F4F9F4F9923A9F0F92F96E908
S1130860BB279395F695879577956795B795F1117D
S1130870F8CFFAF4BB0F11F460FF1BC06F5F7F4F1A
S11308808F4F9F4F16C0882311F096E911C077232C
S113089021F09EE8872F762F05C0662371F096E835
S11308A0862F70E060E02AF09A95660F771F881F04
S11308B0DAF7880F9695879597F9089597F99F67C2
S11308C080E870E060E008959FEF80EC08950024D4
S11308D00A941616170618060906089500240A94A1
S11308E012161306140605060895092E0394000C27
S11308F011F4882352F0BB0F40F4BF2B11F460FFB6
S113090004C06F5F7F4F8F4F9F4F089557FD9058DE
S1130910440F551F59F05F3F71F04795880F97FBBF
S1130920991F61F09F3F79F0879508951216130679
S11309301406551FF2CF4695F1DF08C016161706A8
S11309401806991FF1CF86957105610508940895DD
S1130950E894BB2766277727CB0197F908950E946F
S1130960C2040C9475040E94670438F00E946E045B
S113097020F0952311F00C945E040C94640411246B
S11309800C94A9040E94860470F3959FC1F3950FFB
S113099050E0551F629FF001729FBB27F00DB11DFF
S11309A0639FAA27F00DB11DAA1F649F6627B00D8F
S11309B0A11D661F829F2227B00DA11D621F739F78
S11309C0B00DA11D621F839FA00D611D221F749F86
S11309D03327A00D611D231F849F600D211D822FCD
S11309E0762F6A2F11249F5750409AF0F1F08823F4
S11309F04AF0EE0FFF1FBB1F661F771F881F915021
S1130A005040A9F79E3F510580F00C945E040C946D
S1130A10A9045F3FE4F3983ED4F3869577956795F0
S1130A20B795F795E7959F5FC1F7FE2B880F911D4A
S1130A309695879597F908950E948E04E8F09E375D
S1130A40E8F09639B8F49E3848F4672F782F882751
S1130A50985FF9CF86957795679593959539D0F3F7
S1130A60B62FB1706B0F711D811D20F4879577959A
S1130A70679593950C9440050C945B050C94A9041C
S1130A80882371F4772321F09850872B762F07C0A1
S1130A90662311F499270DC09051862B70E060E015
S1130AA02AF09A95660F771F881FDAF7880F9695B4
S1130AB0879597F908959F3F31F0915020F48795D9
S1130AC077956795B795880F911D9695879597F9B2
S1130AD00895A1E21A2EAA1BBB1BFD010DC0AA1F7B
S1130AE0BB1FEE1FFF1FA217B307E407F50720F093
S1130AF0A21BB30BE40BF50B661F771F881F991F0E
S1130B001A9469F760957095809590959B01AC0156
S10D0B10BD01CF010895F894FFCF52
S1130B1A41504C494B4143494A41204A45205A4194
S1130B2A504F434554410020506120636161616F15
S1130B3A206D61636F21200020556E6573692073EF
S1130B4A766F6A20312E2020002020202020697A06
S10D0B5A626F723A20202020200070
S9030000FC
