S014000043686F696365204D616B65722E73726563B5
S11300000C9433000C9450000C9450000C94500049
S11300100C9450000C9450000C9450000C9450001C
S11300200C9450000C9450000C9448030C94500011
S11300300C9450000C9450000C9450000C945000FC
S11300400C9450000C9450000C9450000C945000EC
S11300500C945000A900AB00AD00AF00B100B30098
S1130060B500B700B90011241FBECFE5D8E0DEBF4C
S1130070CDBF10E0A0E6B0E0EEE6FCE002C00590E3
S11300800D92AA3FB107D9F721E0AAEFB0E001C071
S11300901D92A434B207E1F70E94E1010C943506E5
S11300A00C94000080E090E0FC01E95FFE4F1082B8
S11300B001968C309105C1F70895CF990AC08091BB
S11300C00701893140F4E7E0F1E080818F5F8083AC
S11300D002C0109207019091070181E0993109F063
S11300E080E090910701993118F099E1909307010C
S11300F00895CF92DF92EF92FF926A017B01682FFD
S113010070E080E090E00E94C5040E9427020E94F3
S11301101D02C701B6010E9491030E942202FF90B2
S1130120EF90DF90CF90089544E650E060E070E0F7
S113013082E30E94790008950E949400089590E05B
S1130140FC013197E930F105B0F4E65DFF4F0C9402
S11301502F0681E3089582E3089583E3089584E3F9
S1130160089585E3089586E3089587E3089588E371
S1130170089589E3089580E3089511B880E280B971
S1130180089524EA34E844E926BF06B607FEFDCF05
S113019091B1987F983011F09031B1F783B936BF9F
S11301A006B607FEFDCF91B1987F903211F09835D5
S11301B029F446BF06B604FCFDCFE6CF089584E9D2
S11301C086BF06B604FCFDCF089583B984E886BFD4
S11301D006B607FEFDCF91B1987F81E0983209F40D
S11301E080E00895CF93C82F862F0E94C1008C2FE2
S11301F00E94E5000E94DF00CF910895CF93C82F9D
S1130200809113018460809313016EE70E94F200D1
S113021085E88A95F1F70000C295C07F80911301AB
S11302206EE78C2B0E94F200809113018B7F8093E8
S113023013016EE70E94F20085E88A95F1F7000049
S1130240CF910895CF93DF93C82FD82FD295DF7025
S1130250611109C0809113018E7F809313016EE7B1
S11302600E94F20008C08091130181608093130101
S11302706EE70E94F2008D2F0E94FE008C2F0E94D8
S1130280FE00DF91CF910895CF93C82F8091130181
S11302908160809313016EE70E94F2008C2F829597
S11302A08F700E94FE008C2F0E94FE00CF91089553
S11302B060E081E00E94220187E49DE00197F1F76C
S11302C000C000000895109213010E94BD008FE247
S11302D095E70197F1F700C0000083E00E94FE005B
S11302E08FE39FE10197F1F700C0000083E00E94D3
S11302F0FE0087EC90E00197F1F700C0000083E076
S11303000E94FE008FEC97E00197F1F700C0000017
S113031082E00E94FE008FEC97E00197F1F700C0A5
S1130320000060E088E20E9422018FEC97E00197D0
S1130330F1F700C0000060E08CE00E9422018FEC25
S113034097E00197F1F700C0000060E086E00E94AA
S113035022018FEC97E00197F1F700C00000809133
S113036013018860809313016EE70E94F20080916C
S113037013018D7F809313016EE70E94F2000E94A7
S11303805801089590E4699F800D112460E080680D
S11303900E94220108950F931F93CF93FC01808143
S11303A0882359F08F01C0E00E944401CF5FF80117
S11303B0EC0FF11D80818111F7CFCF911F910F9127
S11303C0089578940E9463010E94FB010E948903AE
S11303D00E9418020E94D7030E9452000E948C02BD
S11303E00E949C000E94BA0280E690E00E941904D8
S11303F00E943503FDCF8FE78ABB80E88BBB17BA19
S11304008FEF88BB84BB15BA82EB81BB8CE482BBC3
S1130410089591B321E030E002C0220F331F8A9582
S1130420E2F7292B21BB089587E00E940902089571
S11304300E9414028AE485BD089585B58F7C80628C
S113044085BD089585B58F7C85BD9798089520E076
S113045030E04FE753E40E94530520E030E048ECDD
S113046052E40E9424040E94C0050E94960463BDC5
S11304700895DE9A00C00000DE9883E08A95F1F7C3
S113048000C00895DE9A83E08A95F1F700C0DE98F3
S113049000C0000008951F93CF93DF93182FC8E086
S11304A0D0E8812F8D2319F00E94420202C00E94DD
S11304B03902D695C150A9F7DF91CF911F910895C4
S11304C0DE9885E88A95F1F7000008950F931F934D
S11304D0CF93DF93082F162FD42FC6E0802F0E94CE
S11304E04B02812F0E944B028D2F0E944B020E94CF
S11304F06002C15099F7DF91CF911F910F91089538
S113050040E06FEF80E00E946602089540E060E002
S11305108FEF0E94660208950E94860208950E9449
S11305201F04811105C00E945D00811103C008955C
S113053081E0089582E008950E94580160E080E01F
S11305400E94C20187E790E00E94CB018091FA00EB
S11305508F5F0E949F000E94440184E890E00E9403
S1130560CB0161E080E00E94C20186E890E00E9435
S1130570CB0108950E94580160E080E00E94C2010E
S113058087E990E00E94CB012FEF8EEA9BE4215093
S113059080409040E1F700C000000E949C020E944D
S11305A080021092FC001092FB000895CF9380917A
S11305B0FA00883090F5C091FA000E94E203EC2F13
S11305C0F0E0EE0FFF1FEC5EFE4F9183808380917D
S11305D0FA008F5F8093FA0087E49DE00197F1F7BA
S11305E000C000008CB18091FA00883099F40E9418
S11305F0580160E080E00E94C20188EA90E00E9415
S1130600CB0161E080E00E94C20189EB90E00E948E
S1130610CB011EC00E949C021BC00E94E20387E41F
S11306209DE00197F1F700C000008CB10E945801D1
S113063060E080E00E94C2018AEC90E00E94CB015D
S113064061E080E00E94C2018BED90E00E94CB014A
S1130650CF9108950E94580160E080E00E94C20199
S11306608AEE90E00E94CB0108950E948F0280934D
S1130670FC008091FB0081110AC08091FC00813054
S113068021F0823021F40E942A030E94D6020895A8
S11306901F920F920FB60F9211248F939F93AF93D3
S11306A0BF938091030190910401A0910501B09141
S11306B006010196A11DB11D8093030190930401CD
S11306C0A0930501B09306018091FD009091FE0076
S11306D0A091FF00B09100010196A11DB11D80936E
S11306E0FD009093FE00A093FF00B0930001809161
S11306F001019091020101969093020180930101FE
S1130700BF91AF919F918F910F900FBE0F901F904B
S113071018958BE083BF12BE8DE78CBF82E089BF42
S11307200895AB01BC0110920301109204011092D0
S11307300501109206018091030190910401A0919A
S11307400501B091060184179507A607B70799F725
S113075008952AB128612AB920B5266820BDDC0194
S1130760CB01880F991FAA1FBB1F880F991FAA1FAF
S1130770BB1F9C01AD01220F331F441F551F220FC5
S1130780331F441F551F60E072E18AE790E00E9426
S11307900D068FEF820F89B9DA01C9010197A1090A
S11307A0B109892F9A2FAB2FBB2780BD089560E82C
S11307B075E280E090E00E94A90308955F9BFECF5C
S11307C08CB10895CF930E94DE038A30E1F38D301B
S11307D061F0C0E0EC2FF0E0EC5DFE4F8083CF5F72
S11307E00E94DE038D30B1F701C0C0E0EC2FF0E0D1
S11307F0EC5DFE4F108284E291E0CF9108955D9B01
S1130800FECF8CB908950F931F93CF93FC01808181
S1130810882359F08F01C0E00E94FF03CF5FF801E5
S1130820EC0FF11D80818111F7CFCF911F910F91B2
S113083008950E9403048AE00E94FF0308958BB187
S1130840881F8827881F08950E9438040C9419056E
S11308500E94120558F00E940B0540F029F45F3FF6
S113086029F00C94020551110C944D050C940805C3
S11308700E942A0568F39923B1F3552391F3951B3C
S1130880550BBB27AA2762177307840738F09F5FAD
S11308905F4F220F331F441FAA1FA9F335D00E2E1A
S11308A03AF0E0E832D091505040E695001CCAF787
S11308B02BD0FE2F29D0660F771F881FBB1F26174A
S11308C037074807AB07B0E809F0BB0B802DBF0121
S11308D0FF2793585F4F3AF09E3F510578F00C94F0
S11308E002050C944D055F3FE4F3983ED4F38695DE
S11308F077956795B795F7959F5FC9F7880F911D11
S11309009695879597F90895E1E0660F771F881FFC
S1130910BB1F621773078407BA0720F0621B730BAF
S1130920840BBA0BEE1F88F7E09508950E943205F8
S113093088F09F5798F0B92F9927B751B0F0E1F09C
S1130940660F771F881F991F1AF0BA95C9F714C04C
S1130950B13091F00E944C05B1E008950C944C051F
S1130960672F782F8827B85F39F0B93FCCF3869585
S113097077956795B395D9F73EF4909580957095E2
S113098061957F4F8F4F9F4F0895E89409C097FB5F
S11309903EF490958095709561957F4F8F4F9F4F52
S11309A09923A9F0F92F96E9BB279395F695879596
S11309B077956795B795F111F8CFFAF4BB0F11F459
S11309C060FF1BC06F5F7F4F8F4F9F4F16C0882300
S11309D011F096E911C0772321F09EE8872F762F36
S11309E005C0662371F096E8862F70E060E02AF077
S11309F09A95660F771F881FDAF7880F9695879563
S1130A0097F9089597F99F6780E870E060E008958A
S1130A109FEF80EC089500240A9416161706180612
S1130A200906089500240A941216130614060506EE
S1130A300895092E0394000C11F4882352F0BB0F7F
S1130A4040F4BF2B11F460FF04C06F5F7F4F8F4FE2
S1130A509F4F089557FD9058440F551F59F05F3F1D
S1130A6071F04795880F97FB991F61F09F3F79F0CC
S1130A7087950895121613061406551FF2CF46954E
S1130A80F1DF08C0161617061806991FF1CF8695D0
S1130A907105610508940895E894BB2766277727B4
S1130AA0CB0197F908950E9466050C9419050E94DC
S1130AB00B0538F00E94120520F0952311F00C94D8
S1130AC002050C94080511240C944D050E942A0576
S1130AD070F3959FC1F3950F50E0551F629FF0018D
S1130AE0729FBB27F00DB11D639FAA27F00DB11DA6
S1130AF0AA1F649F6627B00DA11D661F829F22272F
S1130B00B00DA11D621F739FB00DA11D621F839FB5
S1130B10A00D611D221F749F3327A00D611D231F8B
S1130B20849F600D211D822F762F6A2F11249F57D9
S1130B3050409AF0F1F088234AF0EE0FFF1FBB1FDC
S1130B40661F771F881F91505040A9F79E3F51059B
S1130B5080F00C9402050C944D055F3FE4F3983E3D
S1130B60D4F3869577956795B795F795E7959F5F45
S1130B70C1F7FE2B880F911D9695879597F90895D7
S1130B800E943205E8F09E37E8F09639B8F49E38B2
S1130B9048F4672F782F8827985FF9CF8695779543
S1130BA0679593959539D0F3B62FB1706B0F711D7E
S1130BB0811D20F487957795679593950C94E405AA
S1130BC00C94FF050C944D05882371F4772321F0D0
S1130BD09850872B762F07C0662311F499270DC0F0
S1130BE09051862B70E060E02AF09A95660F771F8B
S1130BF0881FDAF7880F9695879597F908959F3F90
S1130C0031F0915020F4879577956795B795880FC3
S1130C10911D9695879597F90895A1E21A2EAA1B1E
S1130C20BB1BFD010DC0AA1FBB1FEE1FFF1FA21798
S1130C30B307E407F50720F0A21BB30BE40BF50B95
S1130C40661F771F881F991F1A9469F7609570951E
S1130C50809590959B01AC01BD01CF010895EE0FE5
S1110C60FF1F0590F491E02D0994F894FFCF46
S1130C6E41504C494B4143494A41204A45205A413F
S1130C7E504F434554410020556E65736920737679
S1130C8E6F6A20002E002020202020697A626F7265
S1130C9E3A20202020200020504120434141414F42
S1130CAE204D41434F212000556E656C61207369C0
S1130CBE206D6178696D756D002062726F6A2069AE
S1130CCE7A626F7261203A2920002053544F5020CB
S1130CDE4954204956414E41212000202020495498
S1130CEE2048555254532120200074617374657248
S10D0CFE20737469736E75740000AE
S9030000FC
