S014000043686F696365204D616B65722E73726563B5
S11300000C942A000C9447000C9447000C9447006D
S11300100C9447000C9447000C9447000C94470040
S11300200C9447000C9447000C949A020C944700DB
S11300300C9447000C9447000C9447000C94470020
S11300400C9447000C9447000C9447000C94470010
S11300500C94470011241FBECFE5D8E0DEBFCDBF0E
S113006010E0A0E6B0E0EAEBFAE002C005900D92E1
S1130070A03BB107D9F720E0A0EBB0E001C01D928E
S1130080A93CB207E1F70E94BA010C945B050C94F9
S1130090000080E090E0FC01E454FF4F10820196E0
S11300A08C309105C1F70895CF990AC08091BC00A6
S11300B0893140F4ECEBF0E080818F5F808302C0F3
S11300C01092BC009091BC0081E0993109F080E06D
S11300D09091BC00993118F099E19093BC00089577
S11300E0CF92DF92EF92FF926A017B01682F70E05A
S11300F080E090E00E94F1030E9406020E94FC014D
S1130100C701B6010E94E3020E940102FF90EF9032
S1130110DF90CF90089544E650E060E070E082E321
S11301200E94700008950E948B00089511B880E227
S113013080B9089524EA34E844E926BF06B607FEE8
S1130140FDCF91B1987F983011F09031B1F783B918
S113015036BF06B607FEFDCF91B1987F903211F0FD
S1130160983529F446BF06B604FCFDCFE6CF0895C2
S113017084E986BF06B604FCFDCF089583B984E8FC
S113018086BF06B607FEFDCF91B1987F81E0983215
S113019009F480E00895CF93C82F862F0E949A0017
S11301A08C2F0E94BE000E94B800CF910895CF9377
S11301B0C82F8091C80084608093C8006EE70E94B5
S11301C0CB0085E88A95F1F70000C295C07F809145
S11301D0C8006EE78C2B0E94CB008091C8008B7FF7
S11301E08093C8006EE70E94CB0085E88A95F1F7FA
S11301F00000CF910895CF93DF93C82FD82FD295C5
S1130200DF70611109C08091C8008E7F8093C8009F
S11302106EE70E94CB0008C08091C8008160809383
S1130220C8006EE70E94CB008D2F0E94D7008C2F50
S11302300E94D700DF91CF910895CF93C82F80916A
S1130240C80081608093C8006EE70E94CB008C2FA9
S113025082958F700E94D7008C2F0E94D700CF9177
S1130260089560E081E00E94FB0087E49DE001972F
S1130270F1F700C0000008951092C8000E94960093
S11302808FE295E70197F1F700C0000083E00E9438
S1130290D7008FE39FE10197F1F700C0000083E0EE
S11302A00E94D70087EC90E00197F1F700C00000AE
S11302B083E00E94D7008FEC97E00197F1F700C02C
S11302C0000082E00E94D7008FEC97E00197F1F7DD
S11302D000C0000060E088E20E94FB008FEC97E021
S11302E00197F1F700C0000060E08CE00E94FB0081
S11302F08FEC97E00197F1F700C0000060E086E022
S11303000E94FB008FEC97E00197F1F700C000001A
S11303108091C80088608093C8006EE70E94CB007B
S11303208091C8008D7F8093C8006EE70E94CB0047
S11303300E943101089590E4699F800D112460E0CA
S113034080680E94FB0008950F931F93CF93FC01D4
S11303508081882359F08F01C0E00E941D01CF5F86
S1130360F801EC0FF11D80818111F7CFCF911F911E
S11303700F91089578940E943C010E94DA010E9432
S1130380DB020E94F7010E9429030E9449000E9497
S11303906B020E9493000E946E0280E690E00E942D
S11303A04A030E9454008823E1F387E790E00E9407
S11303B04A03F7CF8FE78ABB80E88BBB17BA8FEF6E
S11303C088BB84BB15BA82EB81BB8CE482BB0895E5
S11303D091B321E030E002C0220F331F8A95E2F787
S11303E0292B21BB089587E00E94E80108950E940B
S11303F0F3018AE485BD089585B58F7C806285BD4F
S1130400089585B58F7C85BD9798089520E030E0E8
S11304104FE753E40E947F0420E030E048EC52E4CC
S11304200E9450030E94EC040E94C20363BD08951D
S1130430DE9A00C00000DE9883E08A95F1F700C0E0
S11304400895DE9A83E08A95F1F700C0DE9800C033
S1130450000008951F93CF93DF93182FC8E0D0E8CE
S1130460812F8D2319F00E94210202C00E941802DC
S1130470D695C150A9F7DF91CF911F910895DE98C9
S113048085E88A95F1F7000008950F931F93CF93A1
S1130490DF93082F162FD42FC6E0802F0E942A0244
S11304A0812F0E942A028D2F0E942A020E943F025D
S11304B0C15099F7DF91CF911F910F91089540E0BA
S11304C06FEF80E00E944502089540E060E08FEF06
S11304D00E94450208950E94650208950E94310118
S11304E060E080E00E949B018DE790E00E94A401FF
S11304F02FEF8EEA9BE4215080409040E1F700C04A
S113050000000E94310160E080E00E949B018EE8BF
S113051090E00E94A40161E080E00E949B018FE9C9
S113052090E00E94A4010E945F021092B100109218
S1130530B00008951F920F920FB60F9211248F935B
S11305409F93AF93BF938091B8009091B900A0910D
S1130550BA00B091BB000196A11DB11D8093B800F3
S11305609093B900A093BA00B093BB008091B200FD
S11305709091B300A091B400B091B5000196A11D73
S1130580B11D8093B2009093B300A093B400B093D4
S1130590B5008091B6009091B70001969093B70092
S11305A08093B600BF91AF919F918F910F900FBE32
S11305B00F901F9018958BE083BF12BE8DE78CBF00
S11305C082E089BF0895AB01BC011092B80010927B
S11305D0B9001092BA001092BB008091B8009091BB
S11305E0B900A091BA00B091BB0084179507A60783
S11305F0B70799F708952AB128612AB920B5266862
S113060020BDDC01CB01880F991FAA1FBB1F880FD7
S1130610991FAA1FBB1F9C01AD01220F331F441F4A
S1130620551F220F331F441F551F60E072E18AE7F4
S113063090E00E9439058FEF820F89B9DA01C90170
S11306400197A109B109892F9A2FAB2FBB2780BD30
S1130650089560E875E280E090E00E94FB0208954E
S11306605D9BFECF8CB908950F931F93CF93FC012C
S11306708081882359F08F01C0E00E943003CF5F4E
S1130680F801EC0FF11D80818111F7CFCF911F91FB
S11306900F9108950E9434038AE00E943003089564
S11306A00E9464030C9445040E943E0458F00E9486
S11306B0370440F029F45F3F29F00C942E045111C3
S11306C00C9479040C9434040E94560468F399231E
S11306D0B1F3552391F3951B550BBB27AA2762173A
S11306E07307840738F09F5F5F4F220F331F441F47
S11306F0AA1FA9F335D00E2E3AF0E0E832D091507B
S11307005040E695001CCAF72BD0FE2F29D0660F67
S1130710771F881FBB1F261737074807AB07B0E8AA
S113072009F0BB0B802DBF01FF2793585F4F3AF0B0
S11307309E3F510578F00C942E040C9479045F3F8D
S1130740E4F3983ED4F3869577956795B795F79536
S11307509F5FC9F7880F911D9695879597F908951E
S1130760E1E0660F771F881FBB1F621773078407BA
S1130770BA0720F0621B730B840BBA0BEE1F88F7C9
S1130780E09508950E945E0488F09F5798F0B92F71
S11307909927B751B0F0E1F0660F771F881F991FB2
S11307A01AF0BA95C9F714C0B13091F00E947804D8
S11307B0B1E008950C947804672F782F8827B85FE8
S11307C039F0B93FCCF3869577956795B395D9F70A
S11307D03EF490958095709561957F4F8F4F9F4F14
S11307E00895E89409C097FB3EF490958095709520
S11307F061957F4F8F4F9F4F9923A9F0F92F96E969
S1130800BB279395F695879577956795B795F111DD
S1130810F8CFFAF4BB0F11F460FF1BC06F5F7F4F7A
S11308208F4F9F4F16C0882311F096E911C077238C
S113083021F09EE8872F762F05C0662371F096E895
S1130840862F70E060E02AF09A95660F771F881F64
S1130850DAF7880F9695879597F9089597F99F6722
S113086080E870E060E008959FEF80EC0895002434
S11308700A941616170618060906089500240A9401
S113088012161306140605060895092E0394000C87
S113089011F4882352F0BB0F40F4BF2B11F460FF16
S11308A004C06F5F7F4F8F4F9F4F089557FD90583F
S11308B0440F551F59F05F3F71F04795880F97FB20
S11308C0991F61F09F3F79F08795089512161306DA
S11308D01406551FF2CF4695F1DF08C01616170609
S11308E01806991FF1CF869571056105089408953E
S11308F0E894BB2766277727CB0197F908950E94D0
S113090092040C9445040E94370438F00E943E047B
S113091020F0952311F00C942E040C94340411242B
S11309200C9479040E94560470F3959FC1F3950FBB
S113093050E0551F629FF001729FBB27F00DB11D5F
S1130940639FAA27F00DB11DAA1F649F6627B00DEF
S1130950A11D661F829F2227B00DA11D621F739FD8
S1130960B00DA11D621F839FA00D611D221F749FE6
S11309703327A00D611D231F849F600D211D822F2D
S1130980762F6A2F11249F5750409AF0F1F0882354
S11309904AF0EE0FFF1FBB1F661F771F881F915081
S11309A05040A9F79E3F510580F00C942E040C94FE
S11309B079045F3FE4F3983ED4F386957795679581
S11309C0B795F795E7959F5FC1F7FE2B880F911DAB
S11309D09695879597F908950E945E04E8F09E37EE
S11309E0E8F09639B8F49E3848F4672F782F8827B2
S11309F0985FF9CF86957795679593959539D0F358
S1130A00B62FB1706B0F711D811D20F487957795FA
S1130A10679593950C9410050C942B050C9479040C
S1130A20882371F4772321F09850872B762F07C001
S1130A30662311F499270DC09051862B70E060E075
S1130A402AF09A95660F771F881FDAF7880F969514
S1130A50879597F908959F3F31F0915020F4879539
S1130A6077956795B795880F911D9695879597F912
S1130A700895A1E21A2EAA1BBB1BFD010DC0AA1FDB
S1130A80BB1FEE1FFF1FA217B307E407F50720F0F3
S1130A90A21BB30BE40BF50B661F771F881F991F6E
S1130AA01A9469F760957095809590959B01AC01B7
S10D0AB0BD01CF010895F894FFCFB3
S1130ABA41504C494B4143494A41204A45205A41F5
S1130ACA504F434554410055535045480020506106
S1130ADA20636161616F206D61636F21200020557D
S1130AEA6E6573692073766F6A20312E2020002088
S1130AFA20202020697A626F723A20202020200068
S9030000FC
