S014000043686F696365204D616B65722E73726563B5
S11300000C9433000C9450000C9450000C94500049
S11300100C9450000C9450000C9450000C9450001C
S11300200C9450000C9450000C9478050C945000DF
S11300300C9450000C9450000C9450000C945000FC
S11300400C9450000C9450000C9450000C945000EC
S11300500C945000E000E200E400E600E800EA004E
S1130060EC00EE00F00011241FBECFE5D8E0DEBFA7
S1130070CDBF11E0A0E6B0E0ECE7F2E102C00590EC
S11300800D92A43EB107D9F722E0A4EEB1E001C07D
S11300901D92AE39B207E1F70E943F020C943C096D
S11300A00C94000080E090E0FC01EF50FE4F1082C1
S11300B001968C309105C1F70895CF990AC08091BB
S11300C0F101893140F4E1EFF1E080818F5F8083B9
S11300D002C01092F1019091F10181E0993109F08F
S11300E080E09091F101993118F099E19093F10138
S11300F008950895CF92DF92EF92FF926A017B01F7
S1130100682F70E080E090E00E9400070E94850262
S11301100E947B02C701B6010E94C1050E948002B1
S1130120FF90EF90DF90CF90089542E350E060E0BD
S113013070E084EC0E947A00089544E650E060E0A8
S113014070E08CE30E947A00089544E650E060E099
S113015070E08FEF0E947A000895CF93DF9360E000
S113016070E088E492E40E948502D3E01AC00E9401
S11301707B0262E370E080E090E00E94C1050E948F
S1130180800262E370E080E090E00E94C105C1500B
S113019071F760E971E080E090E00E94C105D15000
S11301A011F0C3E0E4CFDF91CF91089590E0FC011A
S11301B03197E930F105B0F4E65DFF4F0C947E0809
S11301C081E3089582E3089583E3089584E3089521
S11301D085E3089586E3089587E3089588E3089501
S11301E089E3089580E3089511B880E280B9089501
S11301F024EA34E844E926BF06B607FEFDCF91B1F0
S1130200987F983011F09031B1F783B936BF06B6B4
S113021007FEFDCF91B1987F903211F0983529F403
S113022046BF06B604FCFDCFE6CF089584E986BF39
S113023006B604FCFDCF089583B984E886BF06B6EC
S113024007FEFDCF91B1987F81E0983209F480E0F8
S11302500895CF93C82F862F0E94F8008C2F0E94F8
S11302601C010E941601CF910895CF93C82F80914D
S1130270FD0184608093FD016EE70E94290185E8F9
S11302808A95F1F70000C295C07F8091FD016EE769
S11302908C2B0E9429018091FD018B7F8093FD01AD
S11302A06EE70E94290185E88A95F1F70000CF9155
S11302B00895CF93DF93C82FD82FD295DF706111A3
S11302C009C08091FD018E7F8093FD016EE70E943D
S11302D0290108C08091FD0181608093FD016EE7D2
S11302E00E9429018D2F0E9435018C2F0E94350117
S11302F0DF91CF910895CF93C82F8091FD01816044
S11303008093FD016EE70E9429018C2F82958F70E6
S11303100E9435018C2F0E943501CF91089560E031
S113032081E00E94590187E49DE00197F1F700C044
S1130330000008951092FD010E94F4008FE295E7F9
S11303400197F1F700C0000083E00E9435018FE3BC
S11303509FE10197F1F700C0000083E00E9435019E
S113036087EC90E00197F1F700C0000083E00E9461
S113037035018FEC97E00197F1F700C0000082E0AF
S11303800E9435018FEC97E00197F1F700C000005F
S113039060E088E20E9459018FEC97E00197F1F741
S11303A000C0000060E08CE00E9459018FEC97E0EF
S11303B00197F1F700C0000060E086E00E94590157
S11303C08FEC97E00197F1F700C000008091FD01E8
S11303D088608093FD016EE70E9429018091FD01F0
S11303E08D7F8093FD016EE70E9429010E948F0199
S11303F0089590E4699F800D112460E080680E9454
S1130400590108950F931F93CF93FC018081882392
S113041059F08F01C0E00E947B01CF5FF801EC0F1F
S1130420F11D80818111F7CFCF911F910F91089514
S1130430CF93DF93EC010E948F0160E080E80E947B
S11304405901CE010E940202DF91CF910895CF930A
S1130450DF93EC0160E080EC0E945901CE010E9420
S11304600202DF91CF910895CF93DF93EB010E94B5
S11304701802CE010E942702DF91CF91089578944B
S11304800E9497020E949A010E9459020E94B90593
S11304900E9476020E9407060E9452000E94790080
S11304A00E94330384E690E00E9449060E945605A8
S11304B0FDCF8FE78ABB80E88BBB17BA8FEF88BB71
S11304C084BB15BA82EB81BB8CE482BB089591B3E3
S11304D021E030E002C0220F331F8A95E2F7292B76
S11304E021BB089587E00E94670208950E9472026A
S11304F08AE485BD089585B58F7C806285BD0895A5
S113050085B58F7C85BD9798089520E030E04FE74E
S113051053E40E948E0720E030E048EC52E40E944D
S11305205F060E94FB070E94D10663BD08950895EB
S1130530DE9A00C00000DE9883E08A95F1F700C0DF
S11305400895DE9A83E08A95F1F700C0DE9800C032
S1130550000008951F93CF93DF93182FC8E0D0E8CD
S1130560812F8D2319F00E94A10202C00E949802DB
S1130570D695C150A9F7DF91CF911F910895DE98C8
S113058085E88A95F1F7000008950F931F93CF93A0
S1130590DF93082F162FD42FC6E0802F0E94AA02C3
S11305A0812F0E94AA028D2F0E94AA020E94BF02DC
S11305B0C15099F7DF91CF911F910F9108954FEF9B
S11305C06FEF80E00E94C50208954FEF60E080E085
S11305D00E94C502089540E06FEF80E00E94C502CA
S11305E0089540E06FEF8FEF0E94C50208954FEF2A
S11305F060E08FEF0E94C502089540E060E08FEF55
S11306000E94C50208954FEF6FEF8FEF0E94C5025D
S113061008950E944F0681110DC00E945D00882339
S113062021F08091E401823038F40E945D00811150
S113063005C0089581E0089582E0089583E0089557
S11306408BE790E00E9418028091E4018F5F0E9482
S1130650D6000E947B018EE20E947B0188E890E034
S11306600E94270208950E94F70289E990E00E94FF
S113067018022FEF8EEA9BE4215080409040E1F76E
S113068000C000000E9420031092E6011092E501D0
S11306900E94EB020E949D000E94540608950E944D
S11306A0FD020E941206E7E4FDE03197F1F700C075
S11306B000002CB12091E401283008F049C0FC016D
S11306C001900020E9F73197E81BF90B7197F8F0D6
S11306D06AEA70E08AEB90E00E943402FFEF2DE3B7
S11306E049E4F15020404040E1F700C0000080910F
S11306F0E401883049F40E94FD0269EC70E08AED5F
S113070090E00E94340239C00E94200336C0209138
S1130710E401E0E12E9F90011124BC01C901825043
S11307209E4F0E94F4088091E4018F5F8093E4015E
S11307308091E401883049F40E94FD0269EC70E084
S11307408AED90E00E94340218C00E94200315C074
S11307506BEE70E08AEF90E00E943402FFEF2DE32D
S113076049E4F15020404040E1F700C0000067E058
S113077071E088E191E00E9434020E949D000E9491
S1130780EB020E945406089581E08093E5010E94E3
S1130790E50268E271E089E391E00E9434020E947C
S11307A095000E945D008111FCCF08958F929F9265
S11307B0AF92BF92CF92DF92EF92FF920F931F936B
S11307C0CF93DF9301E00F2EFCE38F2E912CA12C0D
S11307D0B12CF02D10E007C01F5F2AE0820E911C9F
S11307E0A11CB11C0F5F750164018AE0C81AD1080D
S11307F0E108F10861E080E00E94F9018AE491E0F7
S11308000E940202111108C00E94DF0219C18091E6
S1130810E40181115BC05DC0113019F40E94EB0248
S11308200FC1123019F40E94E5020AC1133019F401
S11308300E94FD0205C1143019F40E94F10200C1A6
S1130840153019F40E940303FBC0163001F70E940F
S1130850F7028091E401811139C03EC00E948F01EA
S113086060E080E00E94F90161E080E00E94F9010B
S11308708AE491E00E940202C15081F761E080E0C5
S11308800E94F9018AE491E00E94020260E080E0A3
S11308900E94F90120E1D29FC001112482509E4F91
S11308A00E94180261E080E00E94F9018AE491E06C
S11308B00E9402020E94A500C701B6010E94C10560
S11308C0DF5F8091E401D81710F003C0D0E0C3E0EB
S11308D0C5CF073008F480CFEEEFF1E0019000209F
S11308E0E9F73197EE5FF140AEE0B2E00D90002001
S11308F0E9F7CD018F5092402091E4018E0F9F1FA4
S1130900820F911D0E94E9080E94E4086091E401AD
S11309102091E40170E00E944808019630E08217BB
S1130920930729F48BE591E00E94180266C00E94A7
S1130930E4086091E4012091E40170E00E94480819
S1130940029630E02F5F3F4F8217930739F46BE62E
S113095071E08EE791E00E9434024FC00E94E408E7
S11309606091E4012091E40170E00E944808AC0128
S11309704D5F5F4F822F90E002964817590739F474
S11309806FE871E08FE991E00E94340236C0C3E061
S11309900E948F0160E080E00E94F90161E080E044
S11309A00E94F9018AE491E00E940202C15081F799
S11309B061E080E00E94F9018AE491E00E94020271
S11309C060E080E00E94F9010E94E4086091E40183
S11309D070E00E94480882959295907F9827807FC6
S11309E0982782509E4F0E94180261E080E00E9486
S11309F0F9018AE491E00E9402021092E4010E944B
S1130A00FD020E94AD000E945D008823E1F3109274
S1130A10E5010E94E50260EB71E089E391E00E9448
S1130A2034020E9495000E945D008111FCCF0E9457
S1130A3020030E94EB020E949D000E94540605C000
S1130A408091E401811142CFC7CEDF91CF911F91F4
S1130A500F91FF90EF90DF90CF90BF90AF909F9059
S1130A608F9008958091E4018230F8F40E94FD0291
S1130A7061EC71E082ED91E00E9434020E949500E5
S1130A802FEF88E09DE3215080409040E1F700C0C3
S1130A9000000E945D008111FCCF0E9420030E948F
S1130AA0EB020E949D000E94540608950E940903CF
S1130AB08093E6018091E501882319F0813099F053
S1130AC008958091E601823029F0833049F0813025
S1130AD071F403C00E94C40308950E944F03089553
S1130AE00E94320508958091E6010E94D60308957C
S1130AF01F920F920FB60F9211248F939F93AF936F
S1130B00BF938091ED019091EE01A091EF01B0911E
S1130B10F0010196A11DB11D8093ED019093EE01AA
S1130B20A093EF01B093F0018091E7019091E80167
S1130B30A091E901B091EA010196A11DB11D809334
S1130B40E7019093E801A093E901B093EA01809151
S1130B50EB019091EC0101969093EC018093EB01F1
S1130B60BF91AF919F918F910F900FBE0F901F90E7
S1130B7018958BE083BF12BE8DE78CBF82E089BFDE
S1130B800895AB01BC011092ED011092EE01109298
S1130B90EF011092F0018091ED019091EE01A0918E
S1130BA0EF01B091F00184179507A607B70799F7ED
S1130BB008952AB128612AB920B5266820BDDC0130
S1130BC0CB01880F991FAA1FBB1F880F991FAA1F4B
S1130BD0BB1F9C01AD01220F331F441F551F220F61
S1130BE0331F441F551F60E072E18AE790E00E94C2
S1130BF05C088FEF820F89B9DA01C9010197A10955
S1130C00B109892F9A2FAB2FBB2780BD089560E8C7
S1130C1075E280E090E00E94D90508955F9BFECFC5
S1130C208CB10895CF930E940E068A30E1F38D3083
S1130C3061F0C0E0EC2FF0E0E258FD4F8083CF5F1D
S1130C400E940E068D30B1F701C0C0E0EC2FF0E039
S1130C50E258FD4F10828EE792E0CF9108955D9B9C
S1130C60FECF8CB908950F931F93CF93FC0180811D
S1130C70882359F08F01C0E00E942F06CF5FF8014E
S1130C80EC0FF11D80818111F7CFCF911F910F914E
S1130C9008950E9433068AE00E942F0608958BB1BE
S1130CA0881F8827881F089582E39CB1E7E4FDE04C
S1130CB03197F1F700C000008150B9F708950E9400
S1130CC073060C9454070E944D0758F00E9446077F
S1130CD040F029F45F3F29F00C943D0751110C9426
S1130CE088070C9443070E94650768F39923B1F3BE
S1130CF0552391F3951B550BBB27AA27621773073E
S1130D00840738F09F5F5F4F220F331F441FAA1FD1
S1130D10A9F335D00E2E3AF0E0E832D0915050408D
S1130D20E695001CCAF72BD0FE2F29D0660F771F3B
S1130D30881FBB1F261737074807AB07B0E809F021
S1130D40BB0B802DBF01FF2793585F4F3AF09E3FA6
S1130D50510578F00C943D070C9488075F3FE4F349
S1130D60983ED4F3869577956795B795F7959F5FE9
S1130D70C9F7880F911D9695879597F90895E1E035
S1130D80660F771F881FBB1F621773078407BA0794
S1130D9020F0621B730B840BBA0BEE1F88F7E095EF
S1130DA008950E946D0788F09F5798F0B92F9927EE
S1130DB0B751B0F0E1F0660F771F881F991F1AF042
S1130DC0BA95C9F714C0B13091F00E948707B1E019
S1130DD008950C948707672F782F8827B85F39F018
S1130DE0B93FCCF3869577956795B395D9F73EF4DB
S1130DF090958095709561957F4F8F4F9F4F089583
S1130E00E89409C097FB3EF49095809570956195A0
S1130E107F4F8F4F9F4F9923A9F0F92F96E9BB2756
S1130E209395F695879577956795B795F111F8CFD2
S1130E30FAF4BB0F11F460FF1BC06F5F7F4F8F4F3D
S1130E409F4F16C0882311F096E911C0772321F033
S1130E509EE8872F762F05C0662371F096E8862FCB
S1130E6070E060E02AF09A95660F771F881FDAF722
S1130E70880F9695879597F9089597F99F6780E865
S1130E8070E060E008959FEF80EC089500240A94D8
S1130E901616170618060906089500240A94121651
S1130EA01306140605060895092E0394000C11F484
S1130EB0882352F0BB0F40F4BF2B11F460FF04C031
S1130EC06F5F7F4F8F4F9F4F089557FD9058440F8A
S1130ED0551F59F05F3F71F04795880F97FB991F95
S1130EE061F09F3F79F08795089512161306140652
S1130EF0551FF2CF4695F1DF08C0161617061806DF
S1130F00991FF1CF86957105610508940895E894B9
S1130F10BB2766277727CB0197F908950E94A1077D
S1130F200C9454070E94460738F00E944D0720F0A5
S1130F30952311F00C943D070C94430711240C9451
S1130F4088070E94650770F3959FC1F3950F50E0E1
S1130F50551F629FF001729FBB27F00DB11D639F67
S1130F60AA27F00DB11DAA1F649F6627B00DA11D0D
S1130F70661F829F2227B00DA11D621F739FB00DB3
S1130F80A11D621F839FA00D611D221F749F332723
S1130F90A00D611D231F849F600D211D822F762FBC
S1130FA06A2F11249F5750409AF0F1F088234AF099
S1130FB0EE0FFF1FBB1F661F771F881F9150504005
S1130FC0A9F79E3F510580F00C943D070C948807C7
S1130FD05F3FE4F3983ED4F3869577956795B7958C
S1130FE0F795E7959F5FC1F7FE2B880F911D9695A6
S1130FF0879597F908950E946D07E8F09E37E8F009
S11310009639B8F49E3848F4672F782F8827985F6C
S1131010F9CF86957795679593959539D0F3B62F43
S1131020B1706B0F711D811D20F4879577956795BD
S113103093950C941F080C943A080C948807882301
S113104071F4772321F09850872B762F07C06623FD
S113105011F499270DC09051862B70E060E02AF0BE
S11310609A95660F771F881FDAF7880F96958795EC
S113107097F908959F3F31F0915020F48795779523
S11310806795B795880F911D9695879597F908955B
S113109097FB072E16F4009407D077FD09D00E9421
S11310A0840807FC05D03EF4909581959F4F0895E0
S11310B0709561957F4F0895A1E21A2EAA1BBB1B60
S11310C0FD010DC0AA1FBB1FEE1FFF1FA217B30710
S11310D0E407F50720F0A21BB30BE40BF50B661F26
S11310E0771F881F991F1A9469F7609570958095EA
S11310F090959B01AC01BD01CF010895EE0FFF1F38
S11311000590F491E02D0994AA1BBB1B51E107C083
S1131110AA1FBB1FA617B70710F0A61BB70B881F83
S1131120991F5A95A9F780959095BC01CD01089512
S11311308F929F92AF92BF92CF92DF92EF92FF92E3
S1131140CF93DF93EC01688179818A819B8161155A
S113115071058105910521F464E279ED8BE597E051
S11311602DE133EF41E050E00E94FB0849015A01B0
S11311709B01AC01A7EAB1E40E941A096B017C014E
S1131180ACEEB4EFA50194010E942809DC01CB0167
S11311908C0D9D1DAE1DBF1DB7FF03C00197A10996
S11311A0B04888839983AA83BB839F77DF91CF91CB
S11311B0FF90EF90DF90CF90BF90AF909F908F9073
S11311C008950E949808089580E690E00E94980887
S11311D00895A0E0B0E08093600090936100A09334
S11311E06200B09363000895FB01DC0101900D924D
S11311F00020E1F70895052E97FB1EF400940E9449
S1131200120957FD07D00E945C0807FC03D04EF476
S11312100C94120950954095309521953F4F4F4FAE
S11312205F4F089590958095709561957F4F8F4F8E
S11312309F4F08950E942D09A59F900DB49F900D76
S1131240A49F800D911D11240895B7FF0C941A09D1
S11312500E941A09821B930B0895A29FB001B39FA9
S1131260C001A39F700D811D1124911DB29F700DAB
S10F1270811D1124911D0895F894FFCFF6
S113127C0100000041504C494B4143494A41204A2A
S113128C45205A41504F434554410020556E6573D7
S113129C692073766F6A20002020202020697A62EE
S11312AC6F723A20202020200020504120434141DD
S11312BC414F204D41434F2120006F7073656720CF
S11312CC6B6172616B74657261005072656B6F72E5
S11312DC6163696C61207369002062726F6A2069B2
S11312EC7A626F7261203A292000556E656C612018
S11312FC7369206D6178696D756D002020204954E7
S113130C2048555254532120200020202053544F60
S113131C50204954212000202042455A20454D4F4D
S113132C43494A45212020005052495449534E49BF
S113133C20544153544552006920736163656B61B9
S113134C6A206F646C756B7500204F7470757374C0
S113135C6920746173746572200020202020202081
S113136C20202020202020202020002049646920D7
S113137C75206B6166616E75212000202020206928
S113138C74277320686F74212020202020002020D3
S113139C44726F70206974206C696B65202000693D
S11313AC6B616B766520656D6F63696A6521005AA4
S11313BC6167726C69206E656B6F672062657A0079
S11313CC69207A61706F636E6920706F6E6F766FCF
S11313DC0064766120697A626F7261206D61636F5B
S11313EC20004D6F72617320756E657469206261A3
S10713FC7220000057
S9030000FC
